:020000040800F2
:1000000000280020C1170008DD160008E5160008CA
:10001000ED160008F5160008FD16000800000000A7
:1000200000000000000000000000000005170008AC
:1000300011170008000000001D170008291700080C
:10004000091800080918000809180008091800080C
:1000500009180008091800080918000809180008FC
:1000600009180008091800080918000809180008EC
:1000700009180008091800080918000809180008DC
:1000800009180008091800080918000809180008CC
:1000900009180008091800080918000809180008BC
:1000A00009180008091800080918000809180008AC
:1000B000351700080918000800000000091800089A
:1000C00009180008000000000000000009180008DE
:1000D00000000000091800080918000800000000CE
:1000E0000918000809180008091800080000000095
:1000F0000000000000000000000000000000000000
:0C01000000000000000000005FF808F1A3
:10010C0010B5054C237833B9044B13B10448AFF345
:10011C0000800123237010BD780000200000000037
:10012C007C30000808B5034B1BB103490348AFF3FF
:10013C00008008BD000000007C0000207C3000081E
:10014C0080B500AF1F4B1B78002B05D01D4B1B78C7
:10015C00013BDAB21B4B1A701A4B1B78002B0CD1DB
:10016C000121194801F038FE0346002B05D1174B2D
:10017C0001221A60134B14221A70124B1B78002B9D
:10018C000CD10221104801F027FE0346002B05D1AB
:10019C000E4B01225A600B4B14221A70094B1B7820
:1001AC00002B0CD10421084801F016FE0346002B4D
:1001BC0005D1064B01229A60024B14221A7000BF23
:1001CC0080BD00BFA0000020000C01409400002066
:1001DC0080B483B000AF7860094A7B6852F8233052
:1001EC00012B06D1064A7B68002142F8231001231B
:1001FC0000E0002318460C37BD4680BC704700BF9A
:10020C009400002080B500AF874B1B68042B00F2D4
:10021C00098101A252F823F039020008C10200083A
:10022C008D030008270300088D03000800F03EFF33
:10023C007E4B1A687E4B1B6813447E4A82FB03126A
:10024C009211DB17D31A7C4A1360784B1B68794ADE
:10025C0082FB03129211DB17D31A784A1360764B88
:10026C001B68764A12681146184600F0E3FE6E4B86
:10027C0001221A6000221021714801F0C4FD0022F5
:10028C0040216F4801F0BFFD012208216C4801F0AC
:10029C00BAFD01224FF48071694801F0B4FD634B43
:1002AC001B6800221946674801F074F8664B654AD2
:1002BC001A606AE00120FFF78BFF0346012B61D126
:1002CC00614B1B68184601F049F9604801F046F98A
:1002DC005F4801F043F90A2264215E4801F05AF8A4
:1002EC00514B05221A6000F05FFC00F0DFFE01228A
:1002FC000821534801F087FD01224FF480715048CA
:10030C0001F081FD002240214D4801F07CFD0022CE
:10031C0020214B4801F077FD85E00120FFF758FFC5
:10032C000346012B30D1484B1B68184601F016F9D7
:10033C00464801F013F9464801F010F90A220A2147
:10034C00444801F027F8384B06221A6000F02CFCC8
:10035C0000F0ACFE01224021394801F054FD01228D
:10036C002021374801F04FFD00220821344801F0CC
:10037C004AFD00224FF48071314801F044FD52E0F7
:10038C0000BF02E000BF00E000BF0020FFF720FF2D
:10039C000346012B15D12C4B1B68184601F0DEF8D7
:1003AC002A4801F0DBF82A4801F0D8F84FF4FA7229
:1003BC000A21294800F0EEFF00F078FE00F0F4FB73
:1003CC0031E00220FFF704FF0346012B2BD1184B21
:1003DC0000221A60154B00221A600121002000F047
:1003EC0029FE114B08221A60174B1B68184601F0A6
:1003FC00B5F8164801F0B2F8184801F0AFF80A2227
:10040C000A21174800F0C6FF00F050FE01222021FF
:10041C000B4801F0F8FC01224FF48071084801F000
:10042C00F2FC00E000BF80BDB000002014000020F2
:10043C0018000020D34D6210B4000020B80000203A
:10044C000008014011050008A4000020110200085A
:10045C00E90B0008D90600085D0B0008950600089A
:10046C00F908000880B500AF002210211C4801F0EB
:10047C00CAFC002240211A4801F0C5FC01220821C7
:10048C00174801F0C0FC01224FF48071144801F0B0
:10049C00BAFC144B01221A60134B1A68134B1B68DD
:1004AC001344134A82FB03129211DB17D31A114A1D
:1004BC0013600D4B1B680E4A82FB03129211DB1763
:1004CC00D31A0D4A1360084B1B68002219460B48BF
:1004DC0000F060FF0A4B094A1A6000BF80BD00BFE4
:1004EC0000080140B000002014000020180000207B
:1004FC00D34D6210B4000020B80000201105000894
:10050C00A400002080B500AF00224FF48071124887
:10051C0001F079FC012280210F4801F074FC0F4B93
:10052C0002221A600E4B1B680E4A82FB03129211B8
:10053C00DB17D31A0C4A13600B4B1B680B4A136066
:10054C00074B1B6800221946094800F023FF094B92
:10055C00074A1A6000BF80BD00080140B0000020AF
:10056C0018000020D34D6210B8000020B400002009
:10057C0085050008A400002080B500AF00220821EA
:10058C001B4801F040FC00228021194801F03BFC83
:10059C0001222021164801F036FC0122402114488A
:1005AC0001F031FC134B03221A60134B1B68134AE6
:1005BC0082FB03129211DB17D31A114A13600E4BF4
:1005CC001A68104B1B6813440C4A82FB03129211DD
:1005DC00DB17D31A0C4A1360074B1B680022194611
:1005EC000A4800F0D7FE0A4B084A1A6000BF80BDCB
:1005FC0000080140B000002014000020D34D621010
:10060C00B400002018000020B800002021060008CB
:10061C00A400002080B500AF01221021124801F087
:10062C00F2FB00222021104801F0EDFB0F4B0422BD
:10063C001A600F4B1B680F4A82FB03129211DB17D7
:10064C00D31A0D4A13600C4B1B680C4A1360084BF1
:10065C001B68002219460A4800F09CFE094B084A08
:10066C001A6000BF80BD00BF00080140B000002030
:10067C0018000020D34D6210B8000020B4000020F8
:10068C0071040008A400002080B500AF0D4B1B685E
:10069C00002B04DD0B4B1B68013B0A4A13600A4B11
:1006AC001B68002B04DD084B1B68013B064A1360DA
:1006BC00044B1B68044A12681146184600F0BAFC39
:1006CC0000BF80BDB4000020B800002080B500AF92
:1006DC00784B1B68052B02D0062B5CD0E9E001207F
:1006EC00FFF776FD0346012B17D1724B06221A60D9
:1006FC0001224021704801F086FB012220216E4826
:10070C0001F081FB002208216B4801F07CFB0022E8
:10071C004FF48071684801F076FB0020FFF758FD1C
:10072C000346012B40F092800A220A21634800F014
:10073C0031FEFA220A21624800F02CFE614800F0DA
:10074C000DFF5C4B01221A605F4B1A685F4B1B68F4
:10075C0013445F4A82FB03129211DB17D31A5D4AD2
:10076C001360594B1B685A4A82FB03129211DB1718
:10077C00D31A594A1360574B1B68574A12681146D3
:10078C00184600F057FC504B1B6800221946534882
:10079C0000F000FE8DE00120FFF71AFD0346012B4F
:1007AC0017D1444B05221A6001220821424801F05E
:1007BC002AFB01224FF480713F4801F024FB0022F8
:1007CC0040213D4801F01FFB002220213A4801F056
:1007DC001AFB0020FFF7FCFC0346012B38D10A2240
:1007EC000A21364800F0D6FDFA220A21344800F0DE
:1007FC00D1FD344800F0B2FE2E4B03221A60324B6E
:10080C001B68334A82FB03129211DB17D31A314A4D
:10081C0013602D4B1A682D4B1B6813442C4A82FB1A
:10082C0003129211DB17D31A2B4A1360294B1B6846
:10083C00294A12681146184600F0FCFB224B1B6833
:10084C0000221946264800F0A5FD32E000BF00E06A
:10085C0000BF0220FFF7BCFC0346012B29D11B4B28
:10086C0000221A60184B00221A600121002000F0AF
:10087C00E1FB104B08221A60124800F06FFE194879
:10088C0000F06CFE0A226421174800F083FDFA2266
:10089C000A210B4800F07EFD00F008FC012220210B
:1008AC00054801F0B0FA01224FF48071024801F0C2
:1008BC00AAFA80BDB0000020000801401102000817
:1008CC00E90B0008D90600081400002018000020CD
:1008DC00D34D6210B4000020B800002011050008B0
:1008EC002106000895060008F908000880B500AF3D
:1008FC008A4B1B68072B74D0082B40F00C8100200E
:10090C00FFF766FC0346012B2BD1854B1B68854AF0
:10091C0052F82320844B1B681344834A1360824B88
:10092C001B68824A1360804B1B68814A934202DD2C
:10093C007D4B00221A607C4B1B687E4A82FB0312A3
:10094C009211DB17D01A764B1B68764A52F823307B
:10095C00784A82FB03129211DB17D31A194600F066
:10096C0069FB0220FFF734FC0346012B40F0A78003
:10097C006B4B00221A60704B1B686E4A82FB031291
:10098C009211DB17D01A664B1B68664A52F823305B
:10099C00684A82FB03129211DB17D31A194600F036
:1009AC0049FB654B1B68614A13605C4B07221A605C
:1009BC0000222021614801F026FA00224FF48071B8
:1009CC005E4801F020FA012210215C4801F01BFA6C
:1009DC0001228021594801F016FA514B00221A606D
:1009EC006DE00020FFF7F4FB0346012B23D14C4BA9
:1009FC001B684C4A52F823204F4B1B6813444E4A39
:100A0C0013604D4B1B68494A13604B4B1B68494A9A
:100A1C0082FB03129211DB17D01A414B1B68414A1F
:100A2C0052F82330434A82FB03129211DB17D31A7C
:100A3C00194600F0FFFA0220FFF7CAFB0346012B10
:100A4C003FD13D4B1A68384B1B6813443C4A9342C8
:100A5C001FDD354B1B68002B1BD1002210213748A2
:100A6C0001F0D1F900228021344801F0CCF90122A7
:100A7C002021324801F0C7F901224FF480712F4830
:100A8C0001F0C1F9254B08221A60254B00221A608F
:100A9C0017E0234B00221A60204B00221A602948D1
:100AAC0000F05CFD0A220A21274800F073FC4FF489
:100ABC007A724FF47A71254800F06CFC2CE000BF80
:100ACC0000E000BF0120FFF783FB0346012B23D17D
:100ADC00134B1B680133124A1360114B1B68042B18
:100AEC0002DD0F4B00221A60104B1B68114A82FB6F
:100AFC0003129211DB17D01A094B1B68094A52F8E2
:100B0C0023300C4A82FB03129211DB17D31A1946BD
:100B1C0000F090FA00E000BF80BD00BFB0000020E4
:100B2C00A80000200000002014000020AC000020D1
:100B3C00D07E0100D34D6210180000200008014047
:100B4C009F860100F90800081102000895060008AC
:100B5C0080B500AF10210F4801F06DF980210D48D0
:100B6C0001F069F90020FFF733FB0346012B0FD18D
:100B7C000A220A21084800F00DFCFA220A21074833
:100B8C0000F008FC064800F0E9FC064B00221A6055
:100B9C0000BF80BD0008014011020008E90B0008ED
:100BAC005D0B0008B000002080B500AF01220821C9
:100BBC00094801F028F901221021074801F023F916
:100BCC0001222021044801F01EF901224021024893
:100BDC0001F019F900BF80BD000C014080B500AFD9
:100BEC00FFF7E2FF254B1B68032B37D801A252F805
:100BFC0023F000BF110C0008270C00083D0C000866
:100C0C00530C0008002208211D4801F0FCF81D4B74
:100C1C001B68184600F038F821E000221021184813
:100C2C0001F0F1F8174B5B68184600F02DF816E050
:100C3C0000222021124801F0E6F8124B9B6818465E
:100C4C0000F022F80BE0002240210D4801F0DBF807
:100C5C000C4BDB68184600F017F800E000BF074BA0
:100C6C001B680133054A1360044B1B68032B02DD20
:100C7C00024B00221A6000BF80BD00BFCC000020D8
:100C8C00000C0140BC00002080B582B000AF786041
:100C9C007B68092B00F2C88101A252F823F000BF37
:100CAC00D50C00082B0D0008810D0008D70D00088D
:100CBC002D0E0008830E0008D90E00082F0F000817
:100CCC00850F0008DB0F000800224FF40071D54897
:100CDC0001F099F800224FF48061D24801F093F8AA
:100CEC0000224FF40061CF4801F08DF800224FF440
:100CFC008051CC4801F087F800224FF40051C948CC
:100D0C0001F081F800224FF48041C64801F07BF8D5
:100D1C0001224FF40041C34801F075F885E101222E
:100D2C004FF40071BF4801F06EF800224FF480615F
:100D3C00BC4801F068F800224FF40061B94801F09A
:100D4C0062F801224FF48051B64801F05CF80122A0
:100D5C004FF40051B34801F056F801224FF4804192
:100D6C00B04801F050F801224FF40041AD4801F0B9
:100D7C004AF85AE100224FF40071AA4801F043F8F6
:100D8C0000224FF48061A74801F03DF801224FF496
:100D9C000061A44801F037F800224FF48051A148BB
:100DAC0001F031F800224FF400519E4801F02BF86D
:100DBC0001224FF480419B4801F025F800224FF4AA
:100DCC000041984801F01FF82FE100224FF4007108
:100DDC00944801F018F800224FF48061914801F01A
:100DEC0012F800224FF400618E4801F00CF800223A
:100DFC004FF480518B4801F006F801224FF400515A
:100E0C00884801F000F801224FF48041854800F039
:100E1C00FAFF00224FF40041824800F0F4FF04E195
:100E2C0001224FF400717F4800F0EDFF00224FF4D7
:100E3C0080617C4800F0E7FF00224FF400617948A4
:100E4C0000F0E1FF01224FF48051764800F0DBFF07
:100E5C0001224FF40051734800F0D5FF00224FF4EB
:100E6C008041704800F0CFFF00224FF400416D48E4
:100E7C0000F0C9FFD9E000224FF40071694800F07E
:100E8C00C2FF01224FF48061664800F0BCFF0022D3
:100E9C004FF40061634800F0B6FF00224FF480511C
:100EAC00604800F0B0FF01224FF400515D4800F0A3
:100EBC00AAFF00224FF480415A4800F0A4FF002200
:100ECC004FF40041574800F09EFFAEE000224FF473
:100EDC000071544800F097FF01224FF48061514893
:100EEC0000F091FF00224FF400614E4800F08BFFA0
:100EFC0000224FF480514B4800F085FF00224FF444
:100F0C000051484800F07FFF00224FF480414548D3
:100F1C0000F079FF00224FF40041424800F073FFCB
:100F2C0083E000224FF400713E4800F06CFF002279
:100F3C004FF480613B4800F066FF00224FF40061E3
:100F4C00384800F060FF01224FF48051354800F022
:100F5C005AFF01224FF40051324800F054FF012295
:100F6C004FF480412F4800F04EFF01224FF4004116
:100F7C002C4800F048FF58E000224FF4007129483B
:100F8C0000F041FF00224FF48061264800F03BFF47
:100F9C0000224FF40061234800F035FF00224FF48B
:100FAC008051204800F02FFF00224FF400511D48C3
:100FBC0000F029FF00224FF480411A4800F023FF73
:100FCC0000224FF40041174800F01DFF2DE00022D5
:100FDC004FF40071134800F016FF00224FF48061AB
:100FEC00104800F010FF00224FF400610D4800F093
:100FFC000AFF00224FF480510A4800F004FF01223E
:10100C004FF40051074800F0FEFE00224FF48041DF
:10101C00044800F0F8FE00224FF40041014800F0B3
:10102C00F2FE02E00008014000BF00BF0837BD46D9
:10103C0080BD00BF80B483B000AF786039607B683E
:10104C00184A82FB03129210DB17D31A164A13604C
:10105C007968144B83FB01239A10CB17D21A1346D1
:10106C009B0013445B00CA1A0F4B5A603B680D4A35
:10107C0082FB03129210DB17D31A0B4A9360396868
:10108C00084B83FB01239A10CB17D21A13469B00F3
:10109C0013445B00CA1A044BDA6000BF0C37BD4620
:1010AC0080BC704767666666BC00002080B500AFE8
:1010BC00002208210F4800F0A6FE002210210D4846
:1010CC0000F0A1FE002220210A4800F09CFE002224
:1010DC004021084800F097FE00228021054800F0CE
:1010EC0092FE00224FF48071024800F08CFE00BF8B
:1010FC0080BD00BF0008014080B500AF00F080FB50
:10110C0000F034F800F0BAF800F06CF8114801F077
:10111C00D9FA00F02DF94FF47A724FF47A710E4827
:10112C0000F038F90A2200210C4800F033F90A22A9
:10113C000A210B4800F02EF9FA220A21094800F086
:10114C0029F94FF47A720A21074800F023F900F0CC
:10115C00C7F9FCE7D0000020491300084D01000836
:10116C0011020008E90B00089506000880B590B044
:10117C0000AF07F1180328220021184601F0ECFEFD
:10118C003B1D00221A605A609A60DA601A610223D1
:10119C00BB610123BB621023FB6200237B6307F15D
:1011AC001803184600F060FE0346002B01D000F037
:1011BC00D9F80F237B600023BB600023FB60002366
:1011CC003B6100237B613B1D0021184601F0CEF8EA
:1011DC000346002B01D000F0C5F800BF4037BD46D8
:1011EC0080BD000080B586B000AF07F10803002277
:1011FC001A605A609A60DA603B4600221A605A60A4
:10120C001D4B4FF080421A601B4B41F63F725A60E7
:10121C00194B00229A60184B0922DA60164B0022F7
:10122C001A61154B00229A61134801F0FBF9034631
:10123C00002B01D000F096F84FF48053BB6007F1FF
:10124C00080319460C4801F079FB0346002B01D02A
:10125C0000F088F800233B6000237B603B46194676
:10126C00054801F051FD0346002B01D000F07AF83F
:10127C0000BF1837BD4680BDD000002080B586B0B9
:10128C0000AF07F1080300221A605A609A60DA6016
:10129C00274B9B69264A43F004039361244B9B69BB
:1012AC0003F004037B607B68214B9B69204A43F06D
:1012BC00080393611E4B9B6903F008033B603B687A
:1012CC0000224FF6FC711B4800F09DFD0022782196
:1012DC00194800F098FD4FF6FC73BB600123FB60CE
:1012EC0000233B6102237B6107F108031946114877
:1012FC0000F0F6FB0723BB600023FB6001233B617E
:10130C0007F1080319460C4800F0EAFB7823BB6090
:10131C000123FB6000233B6102237B6107F108037F
:10132C001946054800F0DCFB00BF1837BD4680BDF0
:10133C000010024000080140000C014080B500AFD5
:10134C000421024800F077FD00BF80BD0008014079
:10135C0080B582B000AF786000F0B0F800BF0837FD
:10136C00BD4680BD80B400AF72B600BF00BFFDE7C4
:10137C0080B400AF064B00221A60054B00225A6065
:10138C00034B00221A7200BFBD4680BC704700BFE1
:10139C001801002080B586B000AFF860B9607A60A3
:1013AC00142001F01BFD03463B613B69002B7DD0F3
:1013BC003B69FA681A60BB683E4AA2FB0323DA0851
:1013CC003B695A607B683B4AA2FB0323DA083B6902
:1013DC009A603B690022DA603B6900221A61364B45
:1013EC001B68002B06D1344A3B691360324A3B69B7
:1013FC00536054E0304B1B687B6109E03B695A68D1
:10140C007B695B68D21A3B695A607B69DB687B61DC
:10141C007B69002B05D03B695A687B695B689A42F3
:10142C00ECD2254B1B687A699A4214D1224B1A686C
:10143C003B69DA60204B1B683A691A611E4B1B68CA
:10144C0059683B695A681C4B1B688A1A5A601A4ABD
:10145C003B69136023E07B69002B0BD1164B5A6858
:10146C003B691A61144B5B683A69DA60124A3B6952
:10147C00536014E03B697A69DA607B691A693B69ED
:10148C001A617B691B693A69DA607B693A691A618E
:10149C007B695A683B695B68D21A7B695A60064B58
:1014AC001B7A0133DAB2044B1A7200E000BF183712
:1014BC00BD4680BDCDCCCCCC1801002080B400AF93
:1014CC00064B1B68002B05D0044B1B685A68013A6D
:1014DC005A6000E000BFBD4680BC70471801002078
:1014EC0080B582B000AF1C4B1B68002B30D01A4B60
:1014FC001B685B68002B2CD1174B1B681B6898472B
:10150C00154B1B687B60144B1B68DB68124A13601D
:10151C007B689B68002B11D07B6818687B689A6885
:10152C0013469B0013445B0019467B689A6813466C
:10153C009B0013445B001A46FFF72CFF786801F000
:10154C0055FC054B1B7A013BDAB2034B1A7200E0D7
:10155C0000BF0837BD4680BD1801002080B584B09F
:10156C0000AF78602E4B1B7A002B01D1002352E088
:10157C002B4B1B68FB604AE0FB681B687A689A423D
:10158C0042D1274B1B68FA689A4211D1FB68DB6881
:10159C0000221A61FB68DB68214A1360204B1B6830
:1015AC005968FB685A681E4B1B680A445A6020E055
:1015BC001B4B5B68FA689A4208D1FB681B690022D6
:1015CC00DA60FB681B69164A536012E0FB681B6902
:1015DC00FA68D268DA60FB68DB68FA6812691A612B
:1015EC00FB68DB685968FB685A68FB68DB680A446F
:1015FC005A600B4B1B7A013BDAB2094B1A72F86832
:10160C0001F0F4FB012306E0FB68DB68FB60FB6880
:10161C00002BB1D1002318461037BD4680BD00BF4A
:10162C001801002080B485B000AF154B9B69144A9B
:10163C0043F001039361124B9B6903F00103BB6000
:10164C00BB680F4BDB690E4A43F08053D3610C4BE4
:10165C00DB6903F080537B607B680A4B5B68FB6043
:10166C00FB6823F0E063FB60FB6843F08063FB6086
:10167C00044AFB68536000BF1437BD4680BC7047FA
:10168C00001002400000014080B584B000AF7860CB
:10169C007B681B68B3F1804F13D10C4BDB690B4A91
:1016AC0043F00103D361094BDB6903F00103FB60D9
:1016BC00FB68002200211C2000F0DBF91C2000F04C
:1016CC00F4F900BF1037BD4680BD00BF00100240CA
:1016DC0080B400AF00BFFDE780B400AF00BFFDE7F2
:1016EC0080B400AF00BFFDE780B400AF00BFFDE7E2
:1016FC0080B400AF00BFFDE780B400AF00BFBD46B3
:10170C0080BC704780B400AF00BFBD4680BC704742
:10171C0080B400AF00BFBD4680BC704780B500AF41
:10172C0000F0B4F800BF80BD80B500AF024801F0F6
:10173C0015F800BF80BD00BFD000002080B586B07A
:10174C0000AF7860144A154BD31A7B617B693B61FF
:10175C00134B1B68002B02D1114B124A1A60104B11
:10176C001A687B6813443A699A4207D201F00CFC60
:10177C0003460C221A604FF0FF3309E0084B1B683C
:10178C00FB60074B1A687B681344054A1360FB68BF
:10179C0018461837BD4680BD002800200004000004
:1017AC00240100207802002080B400AF00BFBD46A9
:1017BC0080BC7047FFF7F8FF0B480C490C4A00231C
:1017CC0002E0D458C4500433C4188C42F9D3094AEB
:1017DC00094C002301E013600432A242FBD301F058
:1017EC00D9FBFFF789FC704700000020780000202F
:1017FC00C03000087800002074020020FEE70000D2
:10180C0080B500AF084B1B68074A43F01003136008
:10181C00032000F023F90F2000F008F8FFF702FF77
:10182C000023184680BD00BF0020024080B582B066
:10183C0000AF7860124B1A68124B1B7819464FF4A4
:10184C007A73B3FBF1F3B2FBF3F3184600F03BF9F8
:10185C000346002B01D001230EE07B680F2B0AD826
:10186C00002279684FF0FF3000F003F9064A7B68DC
:10187C001360002300E0012318460837BD4680BDE5
:10188C001C000020240000202000002080B400AFA9
:10189C00054B1B781A46054B1B681344034A13600F
:1018AC0000BFBD4680BC70472400002028010020EA
:1018BC0080B400AF024B1B681846BD4680BC704715
:1018CC002801002080B485B000AF78607B6803F0FD
:1018DC000703FB600C4BDB68BB60BA684FF6FF0379
:1018EC001340BB60FB681A02BB68134343F0BF6331
:1018FC0043F40033BB60044ABB68D36000BF1437A9
:10190C00BD4680BC704700BF00ED00E080B400AF66
:10191C00044BDB681B0A03F007031846BD4680BC6A
:10192C00704700BF00ED00E080B483B000AF034609
:10193C00FB7197F90730002B0BDBFB7903F01F02CF
:10194C00064997F907305B09012000FA02F241F8C9
:10195C00232000BF0C37BD4680BC704700E100E07F
:10196C0080B483B000AF03463960FB7197F9073040
:10197C00002B0ADB3B68DAB20C4997F907301201ED
:10198C00D2B20B4483F800230AE03B68DAB2084970
:10199C00FB7903F00F03043B1201D2B20B441A760D
:1019AC0000BF0C37BD4680BC704700BF00E100E0B3
:1019BC0000ED00E080B489B000AFF860B9607A60E7
:1019CC00FB6803F00703FB61FB69C3F10703042BFE
:1019DC0028BF0423BB61FB690433062B02D9FB69C6
:1019EC00033B00E000237B614FF0FF32BB6902FA3E
:1019FC0003F3DA43BB681A407B699A404FF0FF311E
:101A0C007B6901FA03F3D9437B680B4013431846F7
:101A1C002437BD4680BC704780B582B000AF78607B
:101A2C007B68013BB3F1807F01D301230FE00A4AAD
:101A3C007B68013B53600F214FF0FF30FFF790FFA5
:101A4C00054B00229A60044B07221A6000231846AB
:101A5C000837BD4680BD00BF10E000E080B582B005
:101A6C0000AF78607868FFF72DFF00BF0837BD46E0
:101A7C0080BD80B586B000AF0346B9607A60FB7359
:101A8C0000237B61FFF742FF78617A68B968786957
:101A9C00FFF790FF024697F90F3011461846FFF7F3
:101AAC005FFF00BF1837BD4680BD80B582B000AF68
:101ABC000346FB7197F907301846FFF735FF00BF57
:101ACC000837BD4680BD80B582B000AF78607868BD
:101ADC00FFF7A2FF034618460837BD4680BD00003D
:101AEC0080B48BB000AF7860396000237B62002338
:101AFC003B6261E101227B6A02FA03F3FB613B6802
:101B0C001B68FA691340BB61BA69FB699A4240F0E1
:101B1C0050813B685B68974A93425ED0954A9342EA
:101B2C0075D8954A934258D0934A93426FD8934AAA
:101B3C00934252D0914A934269D8914A93424CD0E5
:101B4C008F4A934263D88F4A934246D08D4A934230
:101B5C005DD8122B2AD8122B59D801A252F823F097
:101B6C00E71B0008C11B0008D31B0008151C00084C
:101B7C001B1C00081B1C00081B1C00081B1C00085D
:101B8C001B1C00081B1C00081B1C00081B1C00084D
:101B9C001B1C00081B1C00081B1C00081B1C00083D
:101BAC001B1C0008C91B0008DD1B0008764A934269
:101BBC0013D02CE03B68DB683B6229E03B68DB68B8
:101BCC0004333B6224E03B68DB6808333B621FE074
:101BDC003B68DB680C333B621AE03B689B68002B6C
:101BEC0002D104233B6213E03B689B68012B05D1B7
:101BFC0008233B627B68FA691A6109E008233B629F
:101C0C007B68FA695A6103E000233B6200E000BF85
:101C1C00BB69FF2B01D87B6801E07B6804337B61D7
:101C2C00BB69FF2B02D87B6A9B0002E07B6A083BF6
:101C3C009B003B617B691A680F213B6901FA03F336
:101C4C00DB431A40396A3B6901FA03F31A437B6997
:101C5C001A603B685B6803F08053002B00F0A9808E
:101C6C004A4B9B69494A43F001039361474B9B697B
:101C7C0003F00103BB60BB68454A7B6A9B080233D7
:101C8C0052F82330FB607B6A03F003039B000F22A6
:101C9C0002FA03F3DB43FA681340FB607B683D4AAE
:101CAC0093420DD07B683C4A934207D07B683B4AF9
:101CBC00934201D1022304E0032302E0012300E05C
:101CCC0000237A6A02F0030292009340FA681343ED
:101CDC00FB602F497B6A9B080233FA6841F823208A
:101CEC003B685B6803F48013002B06D02C4B9A687E
:101CFC002B49BB6913438B6006E0294B9A68BB697F
:101D0C00DB43274913408B603B685B6803F400138B
:101D1C00002B06D0224BDA682149BB691343CB60F8
:101D2C0006E01F4BDA68BB69DB431D491340CB60EF
:101D3C003B685B6803F40033002B06D0184B5A68E1
:101D4C001749BB6913434B6006E0154B5A68BB69D6
:101D5C00DB43134913404B603B685B6803F48033EF
:101D6C00002B1FD00E4B1A680D49BB6913430B6037
:101D7C001FE000BF000032100000311000002210E4
:101D8C000000211000001210000011100010024081
:101D9C000000014000080140000C0140001001400F
:101DAC00000401400B4B1A68BB69DB430949134023
:101DBC000B607B6A01337B623B681A687B6A22FA90
:101DCC0003F3002B7FF496AE00BF00BF2C37BD464B
:101DDC0080BC70470004014080B485B000AF7860CF
:101DEC000B467B807B689A687B881340002B02D063
:101DFC000123FB7301E00023FB73FB7B18461437B4
:101E0C00BD4680BC704780B483B000AF78600B4691
:101E1C007B8013467B707B78002B03D07A887B68A1
:101E2C001A6103E07B881A047B681A6100BF0C37C7
:101E3C00BD4680BC704780B485B000AF78600B465F
:101E4C007B807B68DB68FB607A88FB6813401A0434
:101E5C00FB68D9437B880B401A437B681A6100BF2F
:101E6C001437BD4680BC704780B586B000AF786033
:101E7C007B68002B01D1012372E27B681B6803F0A5
:101E8C000103002B00F08780924B5B6803F00C037E
:101E9C00042B0CD08F4B5B6803F00C03082B12D176
:101EAC008C4B5B6803F48033B3F5803F0BD1894BCB
:101EBC001B6803F40033002B6CD07B685B68002B31
:101ECC0068D101234CE27B685B68B3F5803F06D197
:101EDC00804B1B687F4A43F4803313602EE07B6891
:101EEC005B68002B0CD17B4B1B687A4A23F4803344
:101EFC001360784B1B68774A23F4802313601DE032
:101F0C007B685B68B3F5A02F0CD1724B1B68714AD0
:101F1C0043F4802313606F4B1B686E4A43F4803389
:101F2C0013600BE06B4B1B686A4A23F4803313601D
:101F3C00684B1B68674A23F4802313607B685B68DB
:101F4C00002B13D0FFF7B4FC386108E0FFF7B0FCAE
:101F5C0002463B69D31A642B01D9032300E25D4B83
:101F6C001B6803F40033002BF0D014E0FFF7A0FC47
:101F7C00386108E0FFF79CFC02463B69D31A642BDE
:101F8C0001D90323ECE1534B1B6803F40033002B02
:101F9C00F0D100E000BF7B681B6803F00203002B4C
:101FAC0063D04C4B5B6803F00C03002B0BD0494BFC
:101FBC005B6803F00C03082B1CD1464B5B6803F4E5
:101FCC008033002B16D1434B1B6803F00203002B0C
:101FDC0005D07B681B69012B01D00123C0E13D4B6F
:101FEC001B6823F0F8027B685B69DB0039491343FB
:101FFC000B603AE07B681B69002B20D0364B01222A
:10200C001A60FFF755FC386108E0FFF751FC0246F7
:10201C003B69D31A022B01D90323A1E12D4B1B6879
:10202C0003F00203002BF0D02A4B1B6823F0F802BC
:10203C007B685B69DB00274913430B6015E0264B7B
:10204C0000221A60FFF734FC386108E0FFF730FC1F
:10205C0002463B69D31A022B01D9032380E11D4BA5
:10206C001B6803F00203002BF0D17B681B6803F0A4
:10207C000803002B3AD07B689B69002B19D0174BB7
:10208C0001221A60FFF714FC386108E0FFF710FC1E
:10209C0002463B69D31A022B01D9032360E10D4B95
:1020AC005B6A03F00203002BF0D0012000F09CFAD5
:1020BC001CE00A4B00221A60FFF7FAFB38610FE0B4
:1020CC00FFF7F6FB02463B69D31A022B08D9032310
:1020DC0046E100BF00100240000042428004424230
:1020EC00924B5B6A03F00203002BE9D17B681B68FF
:1020FC0003F00403002B00F0A6800023FB758B4B30
:10210C00DB6903F08053002B0DD1884BDB69874AC8
:10211C0043F08053D361854BDB6903F08053BB6084
:10212C00BB680123FB75824B1B6803F48073002B87
:10213C0018D17F4B1B687E4A43F480731360FFF702
:10214C00B7FB386108E0FFF7B3FB02463B69D31AD3
:10215C00642B01D9032303E1754B1B6803F48073D3
:10216C00002BF0D07B68DB68012B06D16F4B1B6A10
:10217C006E4A43F0010313622DE07B68DB68002B91
:10218C000CD16A4B1B6A694A23F001031362674B3B
:10219C001B6A664A23F0040313621CE07B68DB684D
:1021AC00052B0CD1614B1B6A604A43F0040313628C
:1021BC005E4B1B6A5D4A43F0010313620BE05B4B01
:1021CC001B6A5A4A23F001031362584B1B6A574A85
:1021DC0023F0040313627B68DB68002B15D0FFF738
:1021EC0067FB38610AE0FFF763FB02463B69D31AD1
:1021FC0041F28832934201D90323B1E04B4B1B6A65
:10220C0003F00203002BEED014E0FFF751FB386112
:10221C000AE0FFF74DFB02463B69D31A41F28832C4
:10222C00934201D903239BE0404B1B6A03F002034A
:10223C00002BEED1FB7D012B05D13C4BDB693B4ADE
:10224C0023F08053D3617B68DB69002B00F087801F
:10225C00364B5B6803F00C03082B61D07B68DB69A1
:10226C00022B46D1334B00221A60FFF721FB386159
:10227C0008E0FFF71DFB02463B69D31A022B01D97C
:10228C0003236DE0294B1B6803F00073002BF0D186
:10229C007B681B6AB3F5803F08D1244B5B6823F441
:1022AC0000327B689B68214913434B601F4B5B6872
:1022BC0023F474127B68196A7B685B6A0B431B49B5
:1022CC0013434B601B4B01221A60FFF7F1FA386184
:1022DC0008E0FFF7EDFA02463B69D31A022B01D94D
:1022EC0003233DE0114B1B6803F00073002BF0D06F
:1022FC0035E0104B00221A60FFF7DAFA386108E07B
:10230C00FFF7D6FA02463B69D31A022B01D90323F5
:10231C0026E0064B1B6803F00073002BF0D11EE087
:10232C007B68DB69012B07D1012319E00010024007
:10233C0000700040600042420B4B5B68FB60FB6826
:10234C0003F480327B681B6A9A4206D1FB6803F463
:10235C0070127B685B6A9A4201D0012300E0002373
:10236C0018461837BD4680BD0010024080B584B0B9
:10237C0000AF786039607B68002B01D10123D0E07D
:10238C006A4B1B6803F007033A689A4210D9674BF3
:10239C001B6823F0070265493B6813430B60634BD2
:1023AC001B6803F007033A689A4201D00123B8E096
:1023BC007B681B6803F00203002B20D07B681B6832
:1023CC0003F00403002B05D0594B5B68584A43F4C7
:1023DC00E06353607B681B6803F00803002B05D097
:1023EC00534B5B68524A43F460535360504B5B68E9
:1023FC0023F0F0027B689B684D4913434B607B686C
:10240C001B6803F00103002B40D07B685B68012B39
:10241C0007D1474B1B6803F40033002B15D1012364
:10242C007FE07B685B68022B07D1414B1B6803F094
:10243C000073002B09D1012373E03D4B1B6803F0A3
:10244C000203002B01D101236BE0394B5B6823F0B5
:10245C0003027B685B68364913434B60FFF728FA2D
:10246C00F8600AE0FFF724FA0246FB68D31A41F23F
:10247C008832934201D9032353E02D4B5B6803F060
:10248C000C027B685B689B009A42EBD1274B1B6864
:10249C0003F007033A689A4210D2244B1B6823F0CE
:1024AC00070222493B6813430B60204B1B6803F067
:1024BC0007033A689A4201D0012332E07B681B681B
:1024CC0003F00403002B08D0194B5B6823F4E06283
:1024DC007B68DB68164913434B607B681B6803F011
:1024EC000803002B09D0124B5B6823F460527B6805
:1024FC001B69DB000E4913434B6000F021F80246C8
:10250C000B4B5B681B0903F00F030A49CB5C22FAE7
:10251C0003F3094A1360094B1B681846FFF786F949
:10252C00002318461037BD4680BD00BF0020024076
:10253C0000100240943000081C00002020000020F5
:10254C0080B487B000AF0023FB600023BB60002386
:10255C007B6100237B6000233B611E4B5B68FB604F
:10256C00FB6803F00C03042B02D0082B03D027E0EC
:10257C00194B3B6127E0FB689B0C03F00F03174AD8
:10258C00D35C7B60FB6803F48033002B10D0114BC1
:10259C005B685B0C03F00103114AD35CBB607B6886
:1025AC000D4A03FB02F2BB68B2FBF3F37B6104E060
:1025BC007B680C4A02FB03F37B617B693B6102E0A5
:1025CC00054B3B6100BF3B6918461C37BD4680BCC0
:1025DC00704700BF0010024000127A00A4300008BF
:1025EC00B430000800093D0080B485B000AF7860BD
:1025FC000A4B1B680A4AA2FB03235B0A7A6802FB9C
:10260C0003F3FB6000BFFB685A1EFA60002BF9D184
:10261C0000BF00BF1437BD4680BC70471C000020B3
:10262C00D34D621080B582B000AF78607B68002B10
:10263C0001D1012341E07B6893F83D30DBB2002BE4
:10264C0006D17B68002283F83C207868FFF71CF8E1
:10265C007B68022283F83D207B681A687B68043310
:10266C001946104600F056FA7B68012283F8462082
:10267C007B68012283F83E207B68012283F83F208F
:10268C007B68012283F840207B68012283F841207B
:10269C007B68012283F842207B68012283F8432067
:1026AC007B68012283F844207B68012283F8452053
:1026BC007B68012283F83D20002318460837BD466D
:1026CC0080BD000080B485B000AF78607B6893F863
:1026DC003D30DBB2012B01D0012335E07B680222B7
:1026EC0083F83D207B681B68DA687B681B6842F0C6
:1026FC000102DA607B681B68164A934209D07B683A
:10270C001B68B3F1804F04D07B681B68124A93425C
:10271C0011D17B681B689B6803F00703FB60FB68A7
:10272C00062B10D07B681B681A687B681B6842F00C
:10273C0001021A6007E07B681B681A687B681B68DB
:10274C0042F001021A60002318461437BD4680BCC3
:10275C00704700BF002C01400004004080B584B0DD
:10276C0000AF78607B681B68DB68FB607B681B686C
:10277C001B69BB60BB6803F00203002B20D0FB6815
:10278C0003F00203002B1BD07B681B686FF0020266
:10279C001A617B6801221A777B681B689B6903F0BE
:1027AC000303002B03D0786800F098F905E07868F3
:1027BC0000F08BF9786800F09AF97B6800221A77A0
:1027CC00BB6803F00403002B20D0FB6803F0040368
:1027DC00002B1BD07B681B686FF004021A617B68AE
:1027EC0002221A777B681B689B6903F44073002BE9
:1027FC0003D0786800F072F905E0786800F065F9AC
:10280C00786800F074F97B6800221A77BB6803F0D3
:10281C000803002B20D0FB6803F00803002B1BD00F
:10282C007B681B686FF008021A617B6804221A77B8
:10283C007B681B68DB6903F00303002B03D078680B
:10284C0000F04CF905E0786800F03FF9786800F08A
:10285C004EF97B6800221A77BB6803F01003002B3B
:10286C0020D0FB6803F01003002B1BD07B681B6887
:10287C006FF010021A617B6808221A777B681B685C
:10288C00DB6903F44073002B03D0786800F026F961
:10289C0005E0786800F019F9786800F028F97B6891
:1028AC0000221A77BB6803F00103002B0CD0FB68E5
:1028BC0003F00103002B07D07B681B686FF001024B
:1028CC001A617868FEF744FDBB6803F08003002BA7
:1028DC000CD0FB6803F08003002B07D07B681B68CF
:1028EC006FF080021A61786800F06FFABB6803F031
:1028FC004003002B0CD0FB6803F04003002B07D0E7
:10290C007B681B686FF040021A61786800F0F8F879
:10291C00BB6803F02003002B0CD0FB6803F02003F2
:10292C00002B07D07B681B686FF020021A61786857
:10293C0000F042FA00BF1037BD4680BD80B584B0B0
:10294C0000AF786039600023FB737B6893F83C30F0
:10295C00012B01D10223B4E07B68012283F83C20D7
:10296C007B68022283F83D207B681B689B68BB60F8
:10297C00BB6823F07703BB60BB6823F47F43BB6069
:10298C007B681B68BA689A603B681B68B3F5005F8C
:10299C003ED0B3F5005F00F28780B3F5805F00F0A6
:1029AC008680B3F5805F7FD8702B1AD0702B7BD8C4
:1029BC00602B50D0602B77D8502B3CD0502B73D839
:1029CC00402B58D0402B6FD8302B64D0302B6BD889
:1029DC00202B60D0202B67D8002B5CD0102B5AD02A
:1029EC0062E07B6818683B6899683B685A683B688A
:1029FC00DB6800F06AF97B681B689B68BB60BB688E
:102A0C0043F07703BB607B681B68BA689A604FE041
:102A1C007B6818683B6899683B685A683B68DB6858
:102A2C0000F053F97B681B689A687B681B6842F45A
:102A3C0080429A603CE07B6818683B6859683B6848
:102A4C00DB681A4600F0CAF87B681B6850211846F0
:102A5C0000F021F92CE07B6818683B6859683B68EA
:102A6C00DB681A4600F0E8F87B681B6860211846A2
:102A7C0000F011F91CE07B6818683B6859683B68EA
:102A8C00DB681A4600F0AAF87B681B6840211846E0
:102A9C0000F001F90CE07B681A683B681B6819466A
:102AAC00104600F0F8F803E00123FB7300E000BFD0
:102ABC007B68012283F83D207B68002283F83C2050
:102ACC00FB7B18461037BD4680BD80B483B000AF89
:102ADC00786000BF0C37BD4680BC704780B483B0B3
:102AEC0000AF786000BF0C37BD4680BC704780B427
:102AFC0083B000AF786000BF0C37BD4680BC704718
:102B0C0080B483B000AF786000BF0C37BD4680BC8A
:102B1C007047000080B485B000AF786039607B6886
:102B2C001B68FB607B682B4A934207D07B68B3F130
:102B3C00804F03D07B68284A934208D1FB6823F06E
:102B4C007003FB603B685B68FA681343FB607B684F
:102B5C00204A934207D07B68B3F1804F03D07B6847
:102B6C001D4A934208D1FB6823F44073FB603B6819
:102B7C00DB68FA681343FB60FB6823F080023B6858
:102B8C005B691343FB607B68FA681A603B689A6860
:102B9C007B68DA623B681A687B689A627B680D4ACC
:102BAC00934203D13B681A697B681A637B680122E4
:102BBC005A617B681B6903F00103002B05D07B680D
:102BCC001B6923F001027B681A6100BF1437BD46F4
:102BDC0080BC7047002C01400004004080B487B0DA
:102BEC0000AFF860B9607A60FB681B6A7B61FB68B8
:102BFC001B6A23F00102FB681A62FB689B693B614C
:102C0C003B6923F0F0033B617B681B013A6913437A
:102C1C003B617B6923F00A037B617A69BB681343D0
:102C2C007B61FB683A699A61FB687A691A6200BF3A
:102C3C001C37BD4680BC704780B487B000AFF860CD
:102C4C00B9607A60FB681B6A7B61FB681B6A23F0C6
:102C5C001002FB681A62FB689B693B613B6923F4B9
:102C6C0070433B617B681B033A6913433B617B698F
:102C7C0023F0A0037B61BB681B017A6913437B6162
:102C8C00FB683A699A61FB687A691A6200BF1C3763
:102C9C00BD4680BC704780B485B000AF78603960A9
:102CAC007B689B68FB60FB6823F07003FB603A68F1
:102CBC00FB68134343F00703FB607B68FA689A6078
:102CCC0000BF1437BD4680BC704780B487B000AFDE
:102CDC00F860B9607A603B60FB689B687B617B69DC
:102CEC0023F47F437B613B681A027B681A43BB6801
:102CFC0013437A6913437B61FB687A699A6000BF5E
:102D0C001C37BD4680BC704780B485B000AF78607E
:102D1C0039607B6893F83C30012B01D1022341E0F0
:102D2C007B68012283F83C207B68022283F83D20DB
:102D3C007B681B685B68FB607B681B689B68BB607F
:102D4C00FB6823F07003FB603B681B68FA68134355
:102D5C00FB607B681B68FA685A607B681B68144AC6
:102D6C00934209D07B681B68B3F1804F04D07B6819
:102D7C001B68104A93420CD1BB6823F08003BB60E4
:102D8C003B685B68BA681343BB607B681B68BA68B6
:102D9C009A607B68012283F83D207B68002283F8CF
:102DAC003C20002318461437BD4680BC704700BF3A
:102DBC00002C01400004004080B483B000AF786068
:102DCC0000BF0C37BD4680BC704780B483B000AFE9
:102DDC00786000BF0C37BD4680BC7047024B014683
:102DEC00186800F02DB800BF28000020024B0146E7
:102DFC00186800F0F5B800BF2800002070B50F4E21
:102E0C000C463168054611B900F0AEF83060214629
:102E1C00284600F0A9F8431C03D14FF0FF3420469C
:102E2C0070BDC41C24F00304A042F8D0211A28461B
:102E3C0000F09AF80130F2D1EFE700BF2C0100202E
:102E4C002DE9F843CD1C25F0030508350C2D38BFB2
:102E5C000C25002D064601DBA94204D90C23336056
:102E6C000020BDE8F883DFF8D48000F069F8D8F8CA
:102E7C0000301C4644BB29463046FFF7BFFF431CBD
:102E8C00044658D1D8F800402746002F43D1002CD7
:102E9C004BD023683946304604EB030900F064F844
:102EAC00814542D1216830466D1A2946FFF7A6FFAD
:102EBC0001303AD023682B442360D8F800305A688C
:102ECC0062BBC8F800700FE02268521B20D40B2A9A
:102EDC0017D96119A342256018BF5960636808BFF0
:102EEC00C8F8001062514B60304600F02FF804F126
:102EFC000B00231D20F00700C21A1CBF1B1AA35085
:102F0C00AFE76268A3420CBFC8F800205A60EBE739
:102F1C0023466468AEE73C467F68B6E71A465B68B2
:102F2C00A342FBD100235360DEE70C233046336011
:102F3C0000F00CF894E70560D6E700BF30010020E4
:102F4C00014800F04BB800BF70020020014800F0AF
:102F5C0046B800BF7002002003460244934200D1E1
:102F6C00704703F8011BF9E738B50023054D0446FB
:102F7C0008462B60FEF7E2FB431C02D12B6803B121
:102F8C00236038BD6C020020014B1868704700BFED
:102F9C002800002070B500260C4D0D4C641BA410AD
:102FAC00A64209D100F064F800260A4D0A4C641BB5
:102FBC00A410A64205D170BD55F8043B98470136C4
:102FCC00EEE755F8043B98470136F2E7B8300008B5
:102FDC00B8300008B8300008BC30000870477047A3
:102FEC0038B50546002940D051F8043C0C1F002B85
:102FFC00B8BFE418FFF7A4FF1C4A136833B9636029
:10300C0014602846BDE83840FFF7A0BFA34208D99A
:10301C00206821188B4201BF19685B680918216070
:10302C00EDE71A465B680BB1A342FAD91168501848
:10303C00A0420BD120680144501883421160E0D1AA
:10304C0018685B68084410605360DAE702D90C23F7
:10305C002B60D6E7206821188B4201BF19685B688A
:10306C000918216063605460CBE738BD3001002043
:10307C00F8B500BFF8BC08BC9E467047F8B500BF59
:08308C00F8BC08BC9E46704729
:103094000000000000000000010203040607080904
:1030A40002030405060708090A0B0C0D0E0F101085
:0430B4000102000015
:0430B80031010008DA
:0430BC000D010008FA
:1030C000E8030000D007000088130000102700006C
:1030D000204E0000102700008813000000127A0024
:1030E00010000000010000002C0000200000000083
:1030F000340100209C010020040200200000000098
:1031000000000000000000000000000000000000BF
:1031100000000000000000000000000000000000AF
:10312000000000000000000000000000000000009F
:08313000000000000000000097
:04000005080017C117
:00000001FF
