:020000040800F2
:1000000000280020711800088D17000895170008B7
:100010009D170008A5170008AD1700080000000094
:10002000000000000000000000000000B5170008FC
:10003000C117000800000000CD170008D9170008FC
:10004000B9180008B9180008B9180008B91800084C
:10005000B9180008B9180008B9180008B91800083C
:10006000B9180008B9180008B9180008B91800082C
:10007000B9180008B9180008B9180008B91800081C
:10008000B9180008B9180008B9180008B91800080C
:10009000B9180008B9180008B9180008B9180008FC
:1000A000B9180008B9180008B9180008B9180008EC
:1000B000E5170008B918000800000000B91800088A
:1000C000B91800080000000000000000B91800087E
:1000D00000000000B9180008B9180008000000006E
:1000E000B9180008B9180008B91800080000000085
:1000F0000000000000000000000000000000000000
:0C01000000000000000000005FF808F1A3
:10010C0010B5054C237833B9044B13B10448AFF345
:10011C0000800123237010BD780000200000000037
:10012C002C31000808B5034B1BB103490348AFF34E
:10013C00008008BD000000007C0000202C3100086D
:10014C0080B500AF1F4B1B78002B05D01D4B1B78C7
:10015C00013BDAB21B4B1A701A4B1B78002B0CD1DB
:10016C000121194801F090FE0346002B05D1174BD5
:10017C0001221A60134B14221A70124B1B78002B9D
:10018C000CD10221104801F07FFE0346002B05D153
:10019C000E4B01225A600B4B14221A70094B1B7820
:1001AC00002B0CD10421084801F06EFE0346002BF5
:1001BC0005D1064B01229A60024B14221A7000BF23
:1001CC0080BD00BFA0000020000C01409400002066
:1001DC0080B483B000AF7860094A7B6852F8233052
:1001EC00012B06D1064A7B68002142F8231001231B
:1001FC0000E0002318460C37BD4680BC704700BF9A
:10020C009400002080B500AF8F4B1B68042B00F2CC
:10021C00198101A252F823F039020008AD0200083E
:10022C001D0300082D0300089D03000800F00CFFBF
:10023C00864B1A68864B1B681344864A82FB031252
:10024C009211DB17D31A844A1360804B1B68814AC6
:10025C0082FB03129211DB17D31A804A13607E4B78
:10026C001B687E4A12681146184600F0B1FE764BA8
:10027C0001221A6000221021794801F01CFE002294
:10028C004021774801F017FE01220821744801F043
:10029C0012FE01224FF48071714801F00CFE82E0D5
:1002AC006A4B1B68002219466E4801F04BF801207E
:1002BC00FFF78EFF0346012B72D16A4801F096F9C5
:1002CC00694801F093F9694801F090F90A22642118
:1002DC00674801F037F85C4B05221A6000F032FCDD
:1002EC0000F0B2FE012208215D4801F0E4FD01227C
:1002FC004FF480715A4801F0DEFD0022402158482D
:10030C0001F0D9FD00222021554801F0D4FD9AE0DE
:10031C004F4B1B6800221946564801F013F842E077
:10032C004A4B1B6800221946534801F00BF8012078
:10033C00FFF74EFF0346012B34D14F4801F056F91D
:10034C00494801F053F9494801F050F90A22642157
:10035C00474800F0F7FF3C4B06221A6000F0F2FB16
:10036C0000F072FE012240213D4801F0A4FD012263
:10037C0020213B4801F09FFD00220821384801F064
:10038C009AFD00224FF48071354801F094FD5AE03B
:10039C002F4B1B6800221946384800F0D3FF02E0AF
:1003AC0000BF00E000BF0020FFF712FF0346012B47
:1003BC0016D1334B5B681B68184601F017F92A48B5
:1003CC0001F014F9294801F011F94FF4FA720021E7
:1003DC002C4800F0B7FF00F037FE00F0B3FB32E022
:1003EC000220FFF7F5FE0346012B2CD1184B0022FF
:1003FC001A60164B00221A600121002000F0E8FD63
:10040C00114B08221A601E4B5B681B68184601F0E2
:10041C00EDF8154801F0EAF81B4801F0E7F80A225C
:10042C0064211A4800F08EFF00F00EFE01222021FC
:10043C000B4801F040FD01224FF48071084801F097
:10044C003AFD00E000BF80BDAC000020140000208D
:10045C0018000020D34D6210B0000020B400002022
:10046C00000801402105000811020008850B000856
:10047C00AD06000885050008050600089D04000867
:10048C0014010020F90A000869060008A9080008F0
:10049C0080B500AF00221021174801F00CFD00229E
:1004AC004021154801F007FD01220821124801F0F6
:1004BC0002FD01224FF480710F4801F0FCFC0F4B40
:1004CC0001221A600E4B1A680E4B1B6813440E4A1D
:1004DC0082FB03129211DB17D31A0C4A1360084BE0
:1004EC001B68094A82FB03129211DB17D31A084AC4
:1004FC00136000BF80BD00BF00080140AC000020AD
:10050C001400002018000020D34D6210B000002011
:10051C00B400002080B500AF00224FF48071104869
:10052C0001F0C9FC012280210D4801F0C4FC0D4BE7
:10053C0002221A600C4B1B680C4A82FB03129211AC
:10054C00DB17D31A0A4A1360074B1B68074A82FB56
:10055C0003129211DB17D31A064A136000BF80BD39
:10056C0000080140AC00002018000020D34D6210A0
:10057C00B0000020B400002080B500AF002208219C
:10058C00164801F098FC00228021144801F093FCDD
:10059C0001222021114801F08EFC012240210F483C
:1005AC0001F089FC0E4B03221A600E4B1B680E4A9D
:1005BC0082FB03129211DB17D31A0C4A1360094BFE
:1005CC001A680B4B1B681344074A82FB03129211E7
:1005DC00DB17D31A074A136000BF80BD0008014027
:1005EC00AC00002014000020D34D6210B00000209D
:1005FC0018000020B400002080B500AF01221021AB
:10060C00104801F058FC002220210E4801F053FC48
:10061C000D4B04221A600D4B1B680D4A82FB031212
:10062C009211DB17D31A0B4A1360084B1B68084A4C
:10063C0082FB03129211DB17D31A074A136000BF17
:10064C0080BD00BF00080140AC0000201800002055
:10065C00D34D6210B0000020B400002080B500AF74
:10066C000D4B1B68002B04DD0B4B1B68013B0A4A2E
:10067C0013600A4B1B68002B04DD084B1B68013B05
:10068C00064A1360044B1B68044A1268114618464C
:10069C0000F09EFC00BF80BDB0000020B400002024
:1006AC0080B500AF714B1B68052B02D0062B55D0C3
:1006BC00DBE00120FFF78CFD0346012B17D16B4BC0
:1006CC0006221A6001224021694801F0F4FB012244
:1006DC002021674801F0EFFB00220821644801F05B
:1006EC00EAFB00224FF48071614801F0E4FB00202A
:1006FC00FFF76EFD0346012B40F084800A22642133
:10070C005C4800F01FFEFA2264215B4800F01AFEE0
:10071C005A4800F06BFF554B01221A60584B1A686F
:10072C00584B1B681344584A82FB03129211DB1777
:10073C00D31A564A1360524B1B68534A82FB03125E
:10074C009211DB17D31A524A1360504B1B68504A54
:10075C0012681146184600F03BFC86E00120FFF7BA
:10076C0037FD0346012B17D1404B05221A6001229D
:10077C0008213F4801F09FFB01224FF480713C4857
:10078C0001F099FB00224021394801F094FB002232
:10079C002021374801F08FFB0020FFF719FD03469D
:1007AC00012B31D10A226421324800F0CBFDFA2210
:1007BC006421314800F0C6FD304800F017FF2B4B88
:1007CC0003221A602E4B1B682F4A82FB03129211D4
:1007DC00DB17D31A2D4A1360294B1A68294B1B6857
:1007EC001344294A82FB03129211DB17D31A284AAD
:1007FC001360264B1B68264A12681146184600F0F7
:10080C00E7FB32E000BF00E000BF0220FFF7E0FC96
:10081C000346012B29D11B4B00221A60184B0022D6
:10082C001A600121002000F0D3FB104B08221A6043
:10083C00124800F0DBFE174800F0D8FE0A226421B3
:10084C00154800F07FFDFA220A210B4800F07AFDD2
:10085C0000F0FAFB01222021054801F02CFB0122BB
:10086C004FF48071024801F026FB80BDAC000020E3
:10087C000008014011020008850B0008AD060008B5
:10088C001400002018000020D34D6210B00000208E
:10089C00B400002069060008A908000880B500AF64
:1008AC00864B1B68072B74D0082B40F00581002069
:1008BC00FFF78EFC0346012B2BD1814B1B68814A21
:1008CC0052F82320804B1B6813447F4A13607E4BE5
:1008DC001B687E4A13607C4B1B687D4A934202DD89
:1008EC00794B00221A60784B1B687A4A82FB031200
:1008FC009211DB17D01A724B1B68724A52F82330D4
:10090C00744A82FB03129211DB17D31A194600F0BA
:10091C005FFB0220FFF75CFC0346012B40F0A0803C
:10092C00674B00221A606C4B1B686A4A82FB0312ED
:10093C009211DB17D01A624B1B68624A52F82330B3
:10094C00644A82FB03129211DB17D31A194600F08A
:10095C003FFB614B1B685D4A1360584B07221A60C2
:10096C00002220215D4801F0A6FA00224FF480718C
:10097C005A4801F0A0FA01221021584801F09BFAC4
:10098C0001228021554801F096FA4D4B00221A6045
:10099C0066E00020FFF71CFC0346012B23D1484BDB
:1009AC001B68484A52F823204B4B1B6813444A4A95
:1009BC001360494B1B68454A1360474B1B68454AFB
:1009CC0082FB03129211DB17D01A3D4B1B683D4A78
:1009DC0052F823303F4A82FB03129211DB17D31AD1
:1009EC00194600F0F5FA0220FFF7F2FB0346012B43
:1009FC0038D1394B1A68344B1B681344384A93422C
:100A0C001FDD314B1B68002B1BD1002210213348FA
:100A1C0001F051FA00228021304801F04CFA0122F9
:100A2C0020212E4801F047FA01224FF480712B4807
:100A3C0001F041FA214B08221A60214B00221A6066
:100A4C0010E01F4B00221A601C4B00221A60254834
:100A5C0000F0CCFD0A226421234800F073FC2CE04A
:100A6C0000BF00E000BF0120FFF7B2FB0346012BE3
:100A7C0023D1134B1B680133114A1360104B1B68B5
:100A8C00042B02DD0E4B00221A60104B1B68114A1E
:100A9C0082FB03129211DB17D01A094B1B68094A0F
:100AAC0052F823300B4A82FB03129211DB17D31A34
:100ABC00194600F08DFA00E000BF80BDAC000020AC
:100ACC00A40000200000002014000020A80000203A
:100ADC00D07E0100D34D62101800002000080140A8
:100AEC009F860100A90800081102000880B500AF1C
:100AFC0010210F4801F0F7F980210D4801F0F3F9AE
:100B0C000020FFF765FB0346012B0FD10A2264215D
:100B1C00084800F017FCFA220021074800F012FCEC
:100B2C00064800F063FD064B00221A6000BF80BD32
:100B3C000008014011020008850B0008F90A0008A2
:100B4C00AC00002080B500AF01220821094801F05B
:100B5C00B2F901221021074801F0ADF90122202140
:100B6C00044801F0A8F901224021024801F0A3F940
:100B7C0000BF80BD000C014080B500AFFFF7E2FF65
:100B8C00254B1B68032B37D801A252F823F000BF6A
:100B9C00AD0B0008C30B0008D90B0008EF0B0008C5
:100BAC00002208211D4801F086F91D4B1B681846D0
:100BBC0000F038F821E000221021184801F07BF9F0
:100BCC00174B5B68184600F02DF816E00022202128
:100BDC00124801F070F9124B9B68184600F022F88D
:100BEC000BE0002240210D4801F065F90C4BDB684D
:100BFC00184600F017F800E000BF074B1B680133E4
:100C0C00054A1360044B1B68032B02DD024B0022C8
:100C1C001A6000BF80BD00BFC8000020000C01405E
:100C2C00B800002080B582B000AF78607B68092BDB
:100C3C0000F2C88101A252F823F000BF710C000829
:100C4C00C70C00081D0D0008730D0008C90D000825
:100C5C001F0E0008750E0008CB0E0008210F0008AF
:100C6C00770F000800224FF40071D54801F023F9EA
:100C7C0000224FF48061D24801F01DF900224FF49C
:100C8C000061CF4801F017F900224FF48051CC4895
:100C9C0001F011F900224FF40051C94801F00BF991
:100CAC0000224FF48041C64801F005F901224FF4AF
:100CBC000041C34801F0FFF885E101224FF40071B7
:100CCC00BF4801F0F8F800224FF48061BC4801F0F5
:100CDC00F2F800224FF40061B94801F0ECF801225F
:100CEC004FF48051B64801F0E6F801224FF4005160
:100CFC00B34801F0E0F801224FF48041B04801F014
:100D0C00DAF801224FF40041AD4801F0D4F85AE171
:100D1C0000224FF40071AA4801F0CDF800224FF4E4
:100D2C008061A74801F0C7F801224FF40061A44884
:100D3C0001F0C1F800224FF48051A14801F0BBF83A
:100D4C0000224FF400519E4801F0B5F801224FF4F7
:100D5C0080419B4801F0AFF800224FF400419848C5
:100D6C0001F0A9F82FE100224FF40071944801F032
:100D7C00A2F800224FF48061914801F09CF8002207
:100D8C004FF400618E4801F096F800224FF4805128
:100D9C008B4801F090F801224FF40051884801F083
:100DAC008AF801224FF48041854801F084F8002232
:100DBC004FF40041824801F07EF804E101224FF427
:100DCC0000717F4801F077F800224FF480617C4875
:100DDC0001F071F800224FF40061794801F06BF8D2
:100DEC0001224FF48051764801F065F801224FF44E
:100DFC000051734801F05FF800224FF480417048B5
:100E0C0001F059F800224FF400416D4801F053F8FD
:100E1C00D9E000224FF40071694801F04CF801222E
:100E2C004FF48061664801F046F800224FF40061EF
:100E3C00634801F040F800224FF48051604801F003
:100E4C003AF801224FF400515D4801F034F80022C9
:100E5C004FF480415A4801F02EF800224FF4004123
:100E6C00574801F028F8AEE000224FF400715448C6
:100E7C0001F021F801224FF48061514801F01BF878
:100E8C0000224FF400614E4801F015F800224FF497
:100E9C0080514B4801F00FF800224FF400514848A4
:100EAC0001F009F800224FF48041454801F003F8A5
:100EBC0000224FF40041424800F0FDFF83E0002285
:100ECC004FF400713E4800F0F6FF00224FF48061B1
:100EDC003B4800F0F0FF00224FF40061384800F06E
:100EEC00EAFF01224FF48051354800F0E4FF012263
:100EFC004FF40051324800F0DEFF01224FF48041E4
:100F0C002F4800F0D8FF01224FF400412C4800F08C
:100F1C00D2FF58E000224FF40071294800F0CBFFBB
:100F2C0000224FF48061264800F0C5FF00224FF4E8
:100F3C000061234800F0BFFF00224FF4805120488D
:100F4C0000F0B9FF00224FF400511D4800F0B3FF30
:100F5C0000224FF480411A4800F0ADFF00224FF4FC
:100F6C000041174800F0A7FF2DE000224FF400715C
:100F7C00134800F0A0FF00224FF48061104800F0ED
:100F8C009AFF00224FF400610D4800F094FF0022FC
:100F9C004FF480510A4800F08EFF01224FF40051AB
:100FAC00074800F088FF00224FF48041044800F00D
:100FBC0082FF00224FF40041014800F07CFF02E068
:100FCC000008014000BF00BF0837BD4680BD00BF10
:100FDC0080B483B000AF786039607B68184A82FBBC
:100FEC0003129210DB17D31A164A13607968144B4C
:100FFC0083FB01239A10CB17D21A13469B00134480
:10100C005B00CA1A0F4B5A603B680D4A82FB0312F5
:10101C009210DB17D31A0B4A93603968084B83FB89
:10102C0001239A10CB17D21A13469B0013445B0072
:10103C00CA1A044BDA6000BF0C37BD4680BC70473F
:10104C0067666666B800002080B500AF00220821F4
:10105C000F4800F030FF002210210D4800F02BFF4C
:10106C00002220210A4800F026FF002240210848D7
:10107C0000F021FF00228021054800F01CFF002217
:10108C004FF48071024800F016FF00BF80BD00BF16
:10109C000008014080B500AF00F00AFC00F034F805
:1010AC0000F0BAF800F06CF8114801F063FB00F0A6
:1010BC002DF94FF47A7240F6B8310E4800F042F92F
:1010CC000A2200210C4800F03DF9FA2200210B48BD
:1010DC0000F038F94FF47A720021094800F032F927
:1010EC000A220021074800F02DF900F0C9F9FCE7AD
:1010FC00CC000020E51200084D010008850B00080B
:10110C00690600081102000880B590B000AF07F125
:10111C00180328220021184601F076FF3B1D0022FF
:10112C001A605A609A60DA601A610223BB6101236B
:10113C00BB621023FB6200237B6307F11803184684
:10114C0000F0EAFE0346002B01D000F0D9F80F2383
:10115C007B600023BB600023FB6000233B6100230A
:10116C007B613B1D0021184601F058F90346002B0A
:10117C0001D000F0C5F800BF4037BD4680BD00006F
:10118C0080B586B000AF07F1080300221A605A60E0
:10119C009A60DA603B4600221A605A601D4B4FF091
:1011AC0080421A601B4B41F63F725A60194B002269
:1011BC009A60184B0922DA60164B00221A61154B03
:1011CC0000229A61134801F085FA0346002B01D0E6
:1011DC0000F096F84FF48053BB6007F108031946F2
:1011EC000C4801F003FC0346002B01D000F088F8FA
:1011FC0000233B6000237B603B461946054801F009
:10120C00DBFD0346002B01D000F07AF800BF183745
:10121C00BD4680BDCC00002080B586B000AF07F184
:10122C00080300221A605A609A60DA60274B9B69A7
:10123C00264A43F004039361244B9B6903F0040397
:10124C007B607B68214B9B69204A43F008039361C8
:10125C001E4B9B6903F008033B603B6800224FF672
:10126C00FC711B4800F027FE00227821194800F081
:10127C0022FE4FF6FC73BB600123FB6000233B6135
:10128C0002237B6107F108031946114800F080FC2A
:10129C000723BB600023FB6001233B6107F10803BC
:1012AC0019460C4800F074FC7823BB600123FB60EA
:1012BC0000233B6102237B6107F1080319460548B3
:1012CC0000F066FC00BF1837BD4680BD0010024020
:1012DC0000080140000C014080B500AF0421024819
:1012EC0000F001FE00BF80BD0008014080B582B057
:1012FC0000AF786000F082F800BF0837BD4680BDB3
:10130C0080B400AF72B600BF00BFFDE780B400AF81
:10131C000A4B00221A60094B00225A60074B00222C
:10132C001A72074B00221A60054B00225A60044BBC
:10133C0000221A7200BFBD4680BC70471401002009
:10134C002001002080B586B000AFF860B9607A60EB
:10135C00F86800F09BF90346012B42D0182001F0ED
:10136C0095FD03467B617B69002B3CD07B69FA6859
:10137C001A60BB681E4AA2FB0323DA087B695A6019
:10138C007B681B4AA2FB0323DA087B699A60194B22
:10139C001B681A46BB681A447B69DA607B690022B9
:1013AC001A617B6900225A61134B1B68002B06D112
:1013BC00114A7B691360104A7B6953600AE00E4B3B
:1013CC005A687B695A610C4B5B687A691A610A4AE4
:1013DC007B695360084B1B7A0133DAB2064B1A72E5
:1013EC0002E000BF00E000BF1837BD4680BD00BF63
:1013FC00CDCCCCCC2C0100201401002080B582B0C7
:10140C0000AF1D4B1B680A331B4A13601B4B1B6838
:10141C007B6024E07B685B68002B05D07B685B6895
:10142C005A1E7B685A6017E07B681B68184600F0F0
:10143C0045F87B689A687B685A607B689B68002BD0
:10144C000AD17B683B607B681B697B603B681B68CF
:10145C00184600F0CBF802E07B681B697B607B6868
:10146C00002B05D07B68DB68034A12689342D1D30A
:10147C0000BF0837BD4680BD2C01002014010020A0
:10148C0080B582B000AF0C4B1B687B600CE07B68B6
:10149C001B6898477B683B607B681B697B603B687B
:1014AC001B68184600F03EF87B68002BEFD100BF9C
:1014BC0000BF0837BD4680BD2001002080B584B038
:1014CC0000AF7860182001F0E1FC0346FB60FB687C
:1014DC007A681A60FB6800221A61FB6800225A6164
:1014EC000F4B1B7A002B06D10D4AFB6813600C4A7C
:1014FC00FB6853600AE00A4B5A68FB685A61084B58
:10150C005B68FA681A61064AFB685360044B1B7AE5
:10151C000133DAB2024B1A7200BF1037BD4680BDE0
:10152C002001002080B584B000AF78602E4B1B7A70
:10153C00002B54D02C4B1B7A012B12D12A4B1B683D
:10154C00BB60294B00221A60274B00225A60B868F6
:10155C0001F0A4FC244B1B7A013BDAB2224B1A7229
:10156C003EE0214B1B68FB6035E0FB681B687A682A
:10157C009A422DD1FB685B69002B08D1FB681B6973
:10158C0000225A61FB681B69174A136016E0FB685E
:10159C001B69002B08D1FB685B6900221A61FB6890
:1015AC005B69114A536009E0FB685B69FA68126970
:1015BC001A61FB681B69FA6852695A610A4B1B7AFB
:1015CC00013BDAB2084B1A72F86801F067FC07E0CD
:1015DC00FB681B69FB60FB68002BC6D100E000BFF9
:1015EC001037BD4680BD00BF2001002080B584B0FF
:1015FC0000AF7860244B1B7A002B01D100233EE016
:10160C00214B1B68FB6036E0FB681B687A689A42CA
:10161C002ED1FB685B69002B08D1FB681B6900228B
:10162C005A61FB681B69184A136016E0FB681B695A
:10163C00002B08D1FB685B6900221A61FB685B69AF
:10164C00114A536009E0FB685B69FA6812691A6118
:10165C00FB681B69FA6852695A610B4B1B7A013B98
:10166C00DAB2094B1A72F86801F018FC012306E093
:10167C00FB681B69FB60FB68002BC5D10023184677
:10168C001037BD4680BD00BF1401002080B485B06A
:10169C0000AF78600E4B1B7A002B01D1002311E0B8
:1016AC000B4B1B68FB6009E0FB681B687A689A426D
:1016BC0001D1012306E0FB681B69FB60FB68002B72
:1016CC00F2D1002318461437BD4680BC704700BFCA
:1016DC001401002080B485B000AF154B9B69144AEF
:1016EC0043F001039361124B9B6903F00103BB6050
:1016FC00BB680F4BDB690E4A43F08053D3610C4B34
:10170C00DB6903F080537B607B680A4B5B68FB6092
:10171C00FB6823F0E063FB60FB6843F08063FB60D5
:10172C00044AFB68536000BF1437BD4680BC704749
:10173C00001002400000014080B584B000AF78601A
:10174C007B681B68B3F1804F13D10C4BDB690B4AE0
:10175C0043F00103D361094BDB6903F00103FB6028
:10176C00FB68002200211C2000F0DBF91C2000F09B
:10177C00F4F900BF1037BD4680BD00BF0010024019
:10178C0080B400AF00BFFDE780B400AF00BFFDE741
:10179C0080B400AF00BFFDE780B400AF00BFFDE731
:1017AC0080B400AF00BFFDE780B400AF00BFBD4602
:1017BC0080BC704780B400AF00BFBD4680BC704792
:1017CC0080B400AF00BFBD4680BC704780B500AF91
:1017DC0000F0B4F800BF80BD80B500AF024801F046
:1017EC0015F800BF80BD00BFCC00002080B586B0CE
:1017FC0000AF7860144A154BD31A7B617B693B614F
:10180C00134B1B68002B02D1114B124A1A60104B60
:10181C001A687B6813443A699A4207D201F00CFCAF
:10182C0003460C221A604FF0FF3309E0084B1B688B
:10183C00FB60074B1A687B681344054A1360FB680E
:10184C0018461837BD4680BD002800200004000053
:10185C00300100208002002080B400AF00BFBD46E4
:10186C0080BC7047FFF7F8FF0B480C490C4A00236B
:10187C0002E0D458C4500433C4188C42F9D3094A3A
:10188C00094C002301E013600432A242FBD301F0A7
:10189C00D9FBFFF7FFFB7047000000207800002009
:1018AC00703100087800002080020020FEE7000064
:1018BC0080B500AF084B1B68074A43F01003136058
:1018CC00032000F023F90F2000F008F8FFF702FFC7
:1018DC000023184680BD00BF0020024080B582B0B6
:1018EC0000AF7860124B1A68124B1B7819464FF4F4
:1018FC007A73B3FBF1F3B2FBF3F3184600F03BF948
:10190C000346002B01D001230EE07B680F2B0AD875
:10191C00002279684FF0FF3000F003F9064A7B682B
:10192C001360002300E0012318460837BD4680BD34
:10193C001C000020240000202000002080B400AFF8
:10194C00054B1B781A46054B1B681344034A13605E
:10195C0000BFBD4680BC704724000020340100202D
:10196C0080B400AF024B1B681846BD4680BC704764
:10197C003401002080B485B000AF78607B6803F040
:10198C000703FB600C4BDB68BB60BA684FF6FF03C8
:10199C001340BB60FB681A02BB68134343F0BF6380
:1019AC0043F40033BB60044ABB68D36000BF1437F8
:1019BC00BD4680BC704700BF00ED00E080B400AFB6
:1019CC00044BDB681B0A03F007031846BD4680BCBA
:1019DC00704700BF00ED00E080B483B000AF034659
:1019EC00FB7197F90730002B0BDBFB7903F01F021F
:1019FC00064997F907305B09012000FA02F241F819
:101A0C00232000BF0C37BD4680BC704700E100E0CE
:101A1C0080B483B000AF03463960FB7197F907308F
:101A2C00002B0ADB3B68DAB20C4997F9073012013C
:101A3C00D2B20B4483F800230AE03B68DAB20849BF
:101A4C00FB7903F00F03043B1201D2B20B441A765C
:101A5C0000BF0C37BD4680BC704700BF00E100E002
:101A6C0000ED00E080B489B000AFF860B9607A6036
:101A7C00FB6803F00703FB61FB69C3F10703042B4D
:101A8C0028BF0423BB61FB690433062B02D9FB6915
:101A9C00033B00E000237B614FF0FF32BB6902FA8D
:101AAC0003F3DA43BB681A407B699A404FF0FF316D
:101ABC007B6901FA03F3D9437B680B401343184647
:101ACC002437BD4680BC704780B582B000AF7860CB
:101ADC007B68013BB3F1807F01D301230FE00A4AFD
:101AEC007B68013B53600F214FF0FF30FFF790FFF5
:101AFC00054B00229A60044B07221A6000231846FB
:101B0C000837BD4680BD00BF10E000E080B582B054
:101B1C0000AF78607868FFF72DFF00BF0837BD462F
:101B2C0080BD80B586B000AF0346B9607A60FB73A8
:101B3C0000237B61FFF742FF78617A68B9687869A6
:101B4C00FFF790FF024697F90F3011461846FFF742
:101B5C005FFF00BF1837BD4680BD80B582B000AFB7
:101B6C000346FB7197F907301846FFF735FF00BFA6
:101B7C000837BD4680BD80B582B000AF786078680C
:101B8C00FFF7A2FF034618460837BD4680BD00008C
:101B9C0080B48BB000AF7860396000237B62002387
:101BAC003B6261E101227B6A02FA03F3FB613B6851
:101BBC001B68FA691340BB61BA69FB699A4240F031
:101BCC0050813B685B68974A93425ED0954A93423A
:101BDC0075D8954A934258D0934A93426FD8934AFA
:101BEC00934252D0914A934269D8914A93424CD035
:101BFC008F4A934263D88F4A934246D08D4A934280
:101C0C005DD8122B2AD8122B59D801A252F823F0E6
:101C1C00971C0008711C0008831C0008C51C0008D8
:101C2C00CB1C0008CB1C0008CB1C0008CB1C0008EC
:101C3C00CB1C0008CB1C0008CB1C0008CB1C0008DC
:101C4C00CB1C0008CB1C0008CB1C0008CB1C0008CC
:101C5C00CB1C0008791C00088D1C0008764A9342A6
:101C6C0013D02CE03B68DB683B6229E03B68DB6807
:101C7C0004333B6224E03B68DB6808333B621FE0C3
:101C8C003B68DB680C333B621AE03B689B68002BBB
:101C9C0002D104233B6213E03B689B68012B05D106
:101CAC0008233B627B68FA691A6109E008233B62EE
:101CBC007B68FA695A6103E000233B6200E000BFD5
:101CCC00BB69FF2B01D87B6801E07B6804337B6127
:101CDC00BB69FF2B02D87B6A9B0002E07B6A083B46
:101CEC009B003B617B691A680F213B6901FA03F386
:101CFC00DB431A40396A3B6901FA03F31A437B69E7
:101D0C001A603B685B6803F08053002B00F0A980DD
:101D1C004A4B9B69494A43F001039361474B9B69CA
:101D2C0003F00103BB60BB68454A7B6A9B08023326
:101D3C0052F82330FB607B6A03F003039B000F22F5
:101D4C0002FA03F3DB43FA681340FB607B683D4AFD
:101D5C0093420DD07B683C4A934207D07B683B4A48
:101D6C00934201D1022304E0032302E0012300E0AB
:101D7C0000237A6A02F0030292009340FA6813433C
:101D8C00FB602F497B6A9B080233FA6841F82320D9
:101D9C003B685B6803F48013002B06D02C4B9A68CD
:101DAC002B49BB6913438B6006E0294B9A68BB69CE
:101DBC00DB43274913408B603B685B6803F40013DB
:101DCC00002B06D0224BDA682149BB691343CB6048
:101DDC0006E01F4BDA68BB69DB431D491340CB603F
:101DEC003B685B6803F40033002B06D0184B5A6831
:101DFC001749BB6913434B6006E0154B5A68BB6926
:101E0C00DB43134913404B603B685B6803F480333E
:101E1C00002B1FD00E4B1A680D49BB6913430B6086
:101E2C001FE000BF00003210000031100000221033
:101E3C0000002110000012100000111000100240D0
:101E4C000000014000080140000C0140001001405E
:101E5C00000401400B4B1A68BB69DB430949134072
:101E6C000B607B6A01337B623B681A687B6A22FADF
:101E7C0003F3002B7FF496AE00BF00BF2C37BD469A
:101E8C0080BC70470004014080B485B000AF78601E
:101E9C000B467B807B689A687B881340002B02D0B2
:101EAC000123FB7301E00023FB73FB7B1846143703
:101EBC00BD4680BC704780B483B000AF78600B46E1
:101ECC007B8013467B707B78002B03D07A887B68F1
:101EDC001A6103E07B881A047B681A6100BF0C3717
:101EEC00BD4680BC704780B485B000AF78600B46AF
:101EFC007B807B68DB68FB607A88FB6813401A0484
:101F0C00FB68D9437B880B401A437B681A6100BF7E
:101F1C001437BD4680BC704780B586B000AF786082
:101F2C007B68002B01D1012372E27B681B6803F0F4
:101F3C000103002B00F08780924B5B6803F00C03CD
:101F4C00042B0CD08F4B5B6803F00C03082B12D1C5
:101F5C008C4B5B6803F48033B3F5803F0BD1894B1A
:101F6C001B6803F40033002B6CD07B685B68002B80
:101F7C0068D101234CE27B685B68B3F5803F06D1E6
:101F8C00804B1B687F4A43F4803313602EE07B68E0
:101F9C005B68002B0CD17B4B1B687A4A23F4803393
:101FAC001360784B1B68774A23F4802313601DE081
:101FBC007B685B68B3F5A02F0CD1724B1B68714A20
:101FCC0043F4802313606F4B1B686E4A43F48033D9
:101FDC0013600BE06B4B1B686A4A23F4803313606D
:101FEC00684B1B68674A23F4802313607B685B682B
:101FFC00002B13D0FFF7B4FC386108E0FFF7B0FCFE
:10200C0002463B69D31A642B01D9032300E25D4BD2
:10201C001B6803F40033002BF0D014E0FFF7A0FC96
:10202C00386108E0FFF79CFC02463B69D31A642B2D
:10203C0001D90323ECE1534B1B6803F40033002B51
:10204C00F0D100E000BF7B681B6803F00203002B9B
:10205C0063D04C4B5B6803F00C03002B0BD0494B4B
:10206C005B6803F00C03082B1CD1464B5B6803F434
:10207C008033002B16D1434B1B6803F00203002B5B
:10208C0005D07B681B69012B01D00123C0E13D4BBE
:10209C001B6823F0F8027B685B69DB00394913434A
:1020AC000B603AE07B681B69002B20D0364B012279
:1020BC001A60FFF755FC386108E0FFF751FC024647
:1020CC003B69D31A022B01D90323A1E12D4B1B68C9
:1020DC0003F00203002BF0D02A4B1B6823F0F8020C
:1020EC007B685B69DB00274913430B6015E0264BCB
:1020FC0000221A60FFF734FC386108E0FFF730FC6F
:10210C0002463B69D31A022B01D9032380E11D4BF4
:10211C001B6803F00203002BF0D17B681B6803F0F3
:10212C000803002B3AD07B689B69002B19D0174B06
:10213C0001221A60FFF714FC386108E0FFF710FC6D
:10214C0002463B69D31A022B01D9032360E10D4BE4
:10215C005B6A03F00203002BF0D0012000F09CFA24
:10216C001CE00A4B00221A60FFF7FAFB38610FE003
:10217C00FFF7F6FB02463B69D31A022B08D903235F
:10218C0046E100BF0010024000004242800442427F
:10219C00924B5B6A03F00203002BE9D17B681B684E
:1021AC0003F00403002B00F0A6800023FB758B4B7F
:1021BC00DB6903F08053002B0DD1884BDB69874A18
:1021CC0043F08053D361854BDB6903F08053BB60D4
:1021DC00BB680123FB75824B1B6803F48073002BD7
:1021EC0018D17F4B1B687E4A43F480731360FFF752
:1021FC00B7FB386108E0FFF7B3FB02463B69D31A23
:10220C00642B01D9032303E1754B1B6803F4807322
:10221C00002BF0D07B68DB68012B06D16F4B1B6A5F
:10222C006E4A43F0010313622DE07B68DB68002BE0
:10223C000CD16A4B1B6A694A23F001031362674B8A
:10224C001B6A664A23F0040313621CE07B68DB689C
:10225C00052B0CD1614B1B6A604A43F004031362DB
:10226C005E4B1B6A5D4A43F0010313620BE05B4B50
:10227C001B6A5A4A23F001031362584B1B6A574AD4
:10228C0023F0040313627B68DB68002B15D0FFF787
:10229C0067FB38610AE0FFF763FB02463B69D31A20
:1022AC0041F28832934201D90323B1E04B4B1B6AB4
:1022BC0003F00203002BEED014E0FFF751FB386162
:1022CC000AE0FFF74DFB02463B69D31A41F2883214
:1022DC00934201D903239BE0404B1B6A03F002039A
:1022EC00002BEED1FB7D012B05D13C4BDB693B4A2E
:1022FC0023F08053D3617B68DB69002B00F087806F
:10230C00364B5B6803F00C03082B61D07B68DB69F0
:10231C00022B46D1334B00221A60FFF721FB3861A8
:10232C0008E0FFF71DFB02463B69D31A022B01D9CB
:10233C0003236DE0294B1B6803F00073002BF0D1D5
:10234C007B681B6AB3F5803F08D1244B5B6823F490
:10235C0000327B689B68214913434B601F4B5B68C1
:10236C0023F474127B68196A7B685B6A0B431B4904
:10237C0013434B601B4B01221A60FFF7F1FA3861D3
:10238C0008E0FFF7EDFA02463B69D31A022B01D99C
:10239C0003233DE0114B1B6803F00073002BF0D0BE
:1023AC0035E0104B00221A60FFF7DAFA386108E0CA
:1023BC00FFF7D6FA02463B69D31A022B01D9032345
:1023CC0026E0064B1B6803F00073002BF0D11EE0D7
:1023DC007B68DB69012B07D1012319E00010024057
:1023EC0000700040600042420B4B5B68FB60FB6876
:1023FC0003F480327B681B6A9A4206D1FB6803F4B3
:10240C0070127B685B6A9A4201D0012300E00023C2
:10241C0018461837BD4680BD0010024080B584B008
:10242C0000AF786039607B68002B01D10123D0E0CC
:10243C006A4B1B6803F007033A689A4210D9674B42
:10244C001B6823F0070265493B6813430B60634B21
:10245C001B6803F007033A689A4201D00123B8E0E5
:10246C007B681B6803F00203002B20D07B681B6881
:10247C0003F00403002B05D0594B5B68584A43F416
:10248C00E06353607B681B6803F00803002B05D0E6
:10249C00534B5B68524A43F460535360504B5B6838
:1024AC0023F0F0027B689B684D4913434B607B68BB
:1024BC001B6803F00103002B40D07B685B68012B89
:1024CC0007D1474B1B6803F40033002B15D10123B4
:1024DC007FE07B685B68022B07D1414B1B6803F0E4
:1024EC000073002B09D1012373E03D4B1B6803F0F3
:1024FC000203002B01D101236BE0394B5B6823F005
:10250C0003027B685B68364913434B60FFF728FA7C
:10251C00F8600AE0FFF724FA0246FB68D31A41F28E
:10252C008832934201D9032353E02D4B5B6803F0AF
:10253C000C027B685B689B009A42EBD1274B1B68B3
:10254C0003F007033A689A4210D2244B1B6823F01D
:10255C00070222493B6813430B60204B1B6803F0B6
:10256C0007033A689A4201D0012332E07B681B686A
:10257C0003F00403002B08D0194B5B6823F4E062D2
:10258C007B68DB68164913434B607B681B6803F060
:10259C000803002B09D0124B5B6823F460527B6854
:1025AC001B69DB000E4913434B6000F021F8024617
:1025BC000B4B5B681B0903F00F030A49CB5C22FA37
:1025CC0003F3094A1360094B1B681846FFF786F999
:1025DC00002318461037BD4680BD00BF00200240C6
:1025EC0000100240443100081C0000202000002094
:1025FC0080B487B000AF0023FB600023BB600023D6
:10260C007B6100237B6000233B611E4B5B68FB609E
:10261C00FB6803F00C03042B02D0082B03D027E03B
:10262C00194B3B6127E0FB689B0C03F00F03174A27
:10263C00D35C7B60FB6803F48033002B10D0114B10
:10264C005B685B0C03F00103114AD35CBB607B68D5
:10265C000D4A03FB02F2BB68B2FBF3F37B6104E0AF
:10266C007B680C4A02FB03F37B617B693B6102E0F4
:10267C00054B3B6100BF3B6918461C37BD4680BC0F
:10268C00704700BF0010024000127A00543100085D
:10269C006431000800093D0080B485B000AF78605B
:1026AC000A4B1B680A4AA2FB03235B0A7A6802FBEB
:1026BC0003F3FB6000BFFB685A1EFA60002BF9D1D4
:1026CC0000BF00BF1437BD4680BC70471C00002003
:1026DC00D34D621080B582B000AF78607B68002B60
:1026EC0001D1012341E07B6893F83D30DBB2002B34
:1026FC0006D17B68002283F83C207868FFF71CF831
:10270C007B68022283F83D207B681A687B6804335F
:10271C001946104600F056FA7B68012283F84620D1
:10272C007B68012283F83E207B68012283F83F20DE
:10273C007B68012283F840207B68012283F84120CA
:10274C007B68012283F842207B68012283F84320B6
:10275C007B68012283F844207B68012283F84520A2
:10276C007B68012283F83D20002318460837BD46BC
:10277C0080BD000080B485B000AF78607B6893F8B2
:10278C003D30DBB2012B01D0012335E07B68022206
:10279C0083F83D207B681B68DA687B681B6842F015
:1027AC000102DA607B681B68164A934209D07B6889
:1027BC001B68B3F1804F04D07B681B68124A9342AC
:1027CC0011D17B681B689B6803F00703FB60FB68F7
:1027DC00062B10D07B681B681A687B681B6842F05C
:1027EC0001021A6007E07B681B681A687B681B682B
:1027FC0042F001021A60002318461437BD4680BC13
:10280C00704700BF002C01400004004080B584B02C
:10281C0000AF78607B681B68DB68FB607B681B68BB
:10282C001B69BB60BB6803F00203002B20D0FB6864
:10283C0003F00203002B1BD07B681B686FF00202B5
:10284C001A617B6801221A777B681B689B6903F00D
:10285C000303002B03D0786800F098F905E0786842
:10286C0000F08BF9786800F09AF97B6800221A77EF
:10287C00BB6803F00403002B20D0FB6803F00403B7
:10288C00002B1BD07B681B686FF004021A617B68FD
:10289C0002221A777B681B689B6903F44073002B38
:1028AC0003D0786800F072F905E0786800F065F9FB
:1028BC00786800F074F97B6800221A77BB6803F023
:1028CC000803002B20D0FB6803F00803002B1BD05F
:1028DC007B681B686FF008021A617B6804221A7708
:1028EC007B681B68DB6903F00303002B03D078685B
:1028FC0000F04CF905E0786800F03FF9786800F0DA
:10290C004EF97B6800221A77BB6803F01003002B8A
:10291C0020D0FB6803F01003002B1BD07B681B68D6
:10292C006FF010021A617B6808221A777B681B68AB
:10293C00DB6903F44073002B03D0786800F026F9B0
:10294C0005E0786800F019F9786800F028F97B68E0
:10295C0000221A77BB6803F00103002B0CD0FB6834
:10296C0003F00103002B07D07B681B686FF001029A
:10297C001A617868FEF7BAFCBB6803F08003002B81
:10298C000CD0FB6803F08003002B07D07B681B681E
:10299C006FF080021A61786800F06FFABB6803F080
:1029AC004003002B0CD0FB6803F04003002B07D036
:1029BC007B681B686FF040021A61786800F0F8F8C9
:1029CC00BB6803F02003002B0CD0FB6803F0200342
:1029DC00002B07D07B681B686FF020021A617868A7
:1029EC0000F042FA00BF1037BD4680BD80B584B000
:1029FC0000AF786039600023FB737B6893F83C3040
:102A0C00012B01D10223B4E07B68012283F83C2026
:102A1C007B68022283F83D207B681B689B68BB6047
:102A2C00BB6823F07703BB60BB6823F47F43BB60B8
:102A3C007B681B68BA689A603B681B68B3F5005FDB
:102A4C003ED0B3F5005F00F28780B3F5805F00F0F5
:102A5C008680B3F5805F7FD8702B1AD0702B7BD813
:102A6C00602B50D0602B77D8502B3CD0502B73D888
:102A7C00402B58D0402B6FD8302B64D0302B6BD8D8
:102A8C00202B60D0202B67D8002B5CD0102B5AD079
:102A9C0062E07B6818683B6899683B685A683B68D9
:102AAC00DB6800F06AF97B681B689B68BB60BB68DD
:102ABC0043F07703BB607B681B68BA689A604FE091
:102ACC007B6818683B6899683B685A683B68DB68A8
:102ADC0000F053F97B681B689A687B681B6842F4AA
:102AEC0080429A603CE07B6818683B6859683B6898
:102AFC00DB681A4600F0CAF87B681B685021184640
:102B0C0000F021F92CE07B6818683B6859683B6839
:102B1C00DB681A4600F0E8F87B681B6860211846F1
:102B2C0000F011F91CE07B6818683B6859683B6839
:102B3C00DB681A4600F0AAF87B681B68402118462F
:102B4C0000F001F90CE07B681A683B681B681946B9
:102B5C00104600F0F8F803E00123FB7300E000BF1F
:102B6C007B68012283F83D207B68002283F83C209F
:102B7C00FB7B18461037BD4680BD80B483B000AFD8
:102B8C00786000BF0C37BD4680BC704780B483B002
:102B9C0000AF786000BF0C37BD4680BC704780B476
:102BAC0083B000AF786000BF0C37BD4680BC704767
:102BBC0080B483B000AF786000BF0C37BD4680BCDA
:102BCC007047000080B485B000AF786039607B68D6
:102BDC001B68FB607B682B4A934207D07B68B3F180
:102BEC00804F03D07B68284A934208D1FB6823F0BE
:102BFC007003FB603B685B68FA681343FB607B689F
:102C0C00204A934207D07B68B3F1804F03D07B6896
:102C1C001D4A934208D1FB6823F44073FB603B6868
:102C2C00DB68FA681343FB60FB6823F080023B68A7
:102C3C005B691343FB607B68FA681A603B689A68AF
:102C4C007B68DA623B681A687B689A627B680D4A1B
:102C5C00934203D13B681A697B681A637B68012233
:102C6C005A617B681B6903F00103002B05D07B685C
:102C7C001B6923F001027B681A6100BF1437BD4643
:102C8C0080BC7047002C01400004004080B487B029
:102C9C0000AFF860B9607A60FB681B6A7B61FB6807
:102CAC001B6A23F00102FB681A62FB689B693B619B
:102CBC003B6923F0F0033B617B681B013A691343CA
:102CCC003B617B6923F00A037B617A69BB68134320
:102CDC007B61FB683A699A61FB687A691A6200BF8A
:102CEC001C37BD4680BC704780B487B000AFF8601D
:102CFC00B9607A60FB681B6A7B61FB681B6A23F016
:102D0C001002FB681A62FB689B693B613B6923F408
:102D1C0070433B617B681B033A6913433B617B69DE
:102D2C0023F0A0037B61BB681B017A6913437B61B1
:102D3C00FB683A699A61FB687A691A6200BF1C37B2
:102D4C00BD4680BC704780B485B000AF78603960F8
:102D5C007B689B68FB60FB6823F07003FB603A6840
:102D6C00FB68134343F00703FB607B68FA689A60C7
:102D7C0000BF1437BD4680BC704780B487B000AF2D
:102D8C00F860B9607A603B60FB689B687B617B692B
:102D9C0023F47F437B613B681A027B681A43BB6850
:102DAC0013437A6913437B61FB687A699A6000BFAD
:102DBC001C37BD4680BC704780B485B000AF7860CE
:102DCC0039607B6893F83C30012B01D1022341E040
:102DDC007B68012283F83C207B68022283F83D202B
:102DEC007B681B685B68FB607B681B689B68BB60CF
:102DFC00FB6823F07003FB603B681B68FA681343A5
:102E0C00FB607B681B68FA685A607B681B68144A15
:102E1C00934209D07B681B68B3F1804F04D07B6868
:102E2C001B68104A93420CD1BB6823F08003BB6033
:102E3C003B685B68BA681343BB607B681B68BA6805
:102E4C009A607B68012283F83D207B68002283F81E
:102E5C003C20002318461437BD4680BC704700BF89
:102E6C00002C01400004004080B483B000AF7860B7
:102E7C0000BF0C37BD4680BC704780B483B000AF38
:102E8C00786000BF0C37BD4680BC7047024B0146D2
:102E9C00186800F02DB800BF28000020024B014636
:102EAC00186800F0F5B800BF2800002070B50F4E70
:102EBC000C463168054611B900F0AEF83060214679
:102ECC00284600F0A9F8431C03D14FF0FF342046EC
:102EDC0070BDC41C24F00304A042F8D0211A28466B
:102EEC0000F09AF80130F2D1EFE700BF3801002072
:102EFC002DE9F843CD1C25F0030508350C2D38BF02
:102F0C000C25002D064601DBA94204D90C233360A5
:102F1C000020BDE8F883DFF8D48000F069F8D8F819
:102F2C0000301C4644BB29463046FFF7BFFF431C0C
:102F3C00044658D1D8F800402746002F43D1002C26
:102F4C004BD023683946304604EB030900F064F893
:102F5C00814542D1216830466D1A2946FFF7A6FFFC
:102F6C0001303AD023682B442360D8F800305A68DB
:102F7C0062BBC8F800700FE02268521B20D40B2AE9
:102F8C0017D96119A342256018BF5960636808BF3F
:102F9C00C8F8001062514B60304600F02FF804F175
:102FAC000B00231D20F00700C21A1CBF1B1AA350D4
:102FBC00AFE76268A3420CBFC8F800205A60EBE789
:102FCC0023466468AEE73C467F68B6E71A465B6802
:102FDC00A342FBD100235360DEE70C233046336061
:102FEC0000F00CF894E70560D6E700BF3C01002028
:102FFC00014800F04BB800BF7C020020014800F0F3
:10300C0046B800BF7C02002003460244934200D124
:10301C00704703F8011BF9E738B50023054D04464A
:10302C0008462B60FEF7E2FB431C02D12B6803B170
:10303C00236038BD78020020014B1868704700BF30
:10304C002800002070B500260C4D0D4C641BA410FC
:10305C00A64209D100F064F800260A4D0A4C641B04
:10306C00A410A64205D170BD55F8043B9847013613
:10307C00EEE755F8043B98470136F2E76831000853
:10308C0068310008683100086C31000870477047DF
:10309C0038B50546002940D051F8043C0C1F002BD4
:1030AC00B8BFE418FFF7A4FF1C4A136833B9636078
:1030BC0014602846BDE83840FFF7A0BFA34208D9EA
:1030CC00206821188B4201BF19685B6809182160C0
:1030DC00EDE71A465B680BB1A342FAD91168501898
:1030EC00A0420BD120680144501883421160E0D1FA
:1030FC0018685B68084410605360DAE702D90C2347
:10310C002B60D6E7206821188B4201BF19685B68D9
:10311C000918216063605460CBE738BD3C01002086
:10312C00F8B500BFF8BC08BC9E467047F8B500BFA8
:08313C00F8BC08BC9E46704778
:103144000000000000000000010203040607080953
:1031540002030405060708090A0B0C0D0E0F1010D4
:043164000102000064
:043168003101000829
:04316C000D01000849
:10317000E8030000D00700008813000010270000BB
:10318000204E0000102700008813000000127A0073
:1031900010000000010000002C00002000000000D2
:1031A00040010020A80100201002002000000000C3
:1031B000000000000000000000000000000000000F
:1031C00000000000000000000000000000000000FF
:1031D00000000000000000000000000000000000EF
:0831E0000000000000000000E7
:040000050800187166
:00000001FF
