:020000040800F2
:1000000000280020E9120008B9110008BF110008FB
:10001000C5110008CB110008D11100080000000034
:10002000000000000000000000000000D7110008E0
:10003000E311000800000000EF110008FB110008A8
:100040003113000831130008311300083113000880
:100050003113000831130008311300083113000870
:100060003113000831130008311300083113000860
:100070003113000831130008311300083113000850
:100080003113000831130008311300083113000840
:100090003113000831130008311300083113000830
:1000A0003113000831130008311300083113000820
:1000B0000912000831130008000000003113000885
:1000C0003113000800000000000000003113000898
:1000D0000000000031130008311300080000000088
:1000E000311300083113000831130008000000002C
:1000F0000000000000000000000000000000000000
:0C01000000000000000000005FF808F1A3
:10010C0010B5054C237833B9044B13B10448AFF345
:10011C0000800123237010BD40000020000000006F
:10012C006029000808B5034B1BB103490348AFF322
:10013C00008008BD00000000440000206029000879
:10014C0080B500AF1D4BDB68012B0ED101211C4883
:10015C0001F0D4FB0346002B07D11A4B01221A6085
:10016C004FF49671032001F059F8144BDB68012B06
:10017C000ED10221124801F0C1FB0346002B07D11E
:10018C00104B01225A604FF49671032001F046F88F
:10019C000A4BDB68012B0ED10421094801F0AEFBA0
:1001AC000346002B07D14FF49671032001F036F86B
:1001BC00044B01229A6000BF80BD00BF24000020C8
:1001CC00000C01405C00002080B483B000AF78606C
:1001DC00094A7B6852F82330012B06D1064A7B680A
:1001EC00002142F82310012300E0002318460C37AD
:1001FC00BD4680BC704700BF5C00002080B500AFDE
:10020C00A74B1B68042B00F2AA8101A252F823F021
:10021C0031020008990200082F030008A10300080E
:10022C003304000800F02AFE9D4B01221A609D4BFE
:10023C001A689D4B1B6813449C4A82FB0312921153
:10024C00DB17D31A9A4A1360964B1B68974A82FBAA
:10025C0003129211DB17D31A964A1360944B1B6846
:10026C00944A12681146184600F0CCFD8D4B1B6861
:10027C001946002000F0D2FF4FF47A71012000F0F3
:10028C00CDFF6421022000F0C9FF1AE100221021E9
:10029C00894801F04AFB00224021874801F045FBC8
:1002AC0001220821844801F040FB01224FF48071A7
:1002BC00814801F03AFB814B1B68012B24D1784B10
:1002CC0002221A60784B1B681946002000F0A6FF2A
:1002DC00754B1B68754A82FB03129211DB17D31AFC
:1002EC00734A1360704B1B68704A82FB03129211A5
:1002FC00DB17D31A6F4A13606D4B1B686D4A12687B
:10030C001146184600F07EFD0120FFF75DFF034605
:10031C00012B40F0BF80624B05221A6000F02CFBD1
:10032C001EE100224FF48071634801F0FEFA0122B5
:10033C008021614801F0F9FA604B1B68012B40F0F9
:10034C00AB80574B03221A60564B1B681946002092
:10035C0000F064FF534B1B68544A82FB031292114A
:10036C00DB17D31A524A13604E4B1A684E4B1B685C
:10037C0013444E4A82FB03129211DB17D31A4D4AD7
:10038C0013604B4B1B684B4A12681146184600F021
:10039C0039FD81E000220821474801F0C6FA00220D
:1003AC008021454801F0C1FA01222021424801F088
:1003BC00BCFA01224021404801F0B7FA3F4B1B68C0
:1003CC00012B24D1364B04221A60374B1B6819467B
:1003DC00002000F023FF344B1B68344A82FB0312CD
:1003EC009211DB17D31A324A13602F4B1B682F4A1A
:1003FC0082FB03129211DB17D31A2E4A13602C4B7B
:10040C001B682C4A12681146184600F0FBFC0120B0
:10041C00FFF7DAFE0346012B40D1214B06221A606E
:10042C0000F0AAFA9CE001221021234801F07DFA89
:10043C0000222021204801F078FA204B1B68012B68
:10044C003ED1174B01221A60164B1B68194600202F
:10045C0000F0E4FE134B1A68134B1B681344134A49
:10046C0082FB03129211DB17D31A114A13600D4B46
:10047C001B680E4A82FB03129211DB17D31A0D4A2A
:10048C0013600B4B1B680B4A12681146184600F0A0
:10049C00B9FC15E000BF14E000BF12E000BF10E093
:1004AC006C0000201400002018000020D34D6210B6
:1004BC00700000207400002000080140240000207F
:1004CC0000BF284B9B68012B05D16421022000F052
:1004DC00A5FE00F06BFA234B5B68012B16D14FF491
:1004EC007A71012000F09AFE1F4B1B68013B1E4ADB
:1004FC0013601E4B1B68013B1C4A13601A4B1B6894
:10050C001A4A12681146184600F07CFC0020FFF7CE
:10051C005BFE0346012B0CD100F0B0FC00F02CFA72
:10052C00134B19221A604FF4FA71002000F076FE7A
:10053C0016E00220FFF748FE0346012B10D10D4BAD
:10054C0000221A600C4B00221A6000F097FC084B3A
:10055C0008221A606421002000F060FE00E000BF59
:10056C0080BD00BF2400002070000020740000201B
:10057C006C000020180000201400002080B500AF93
:10058C00544B1B68052B02D0062B45D0A1E0012251
:10059C000821514801F0C9F901224FF480714E48ED
:1005AC0001F0C3F9002240214B4801F0BEF90022B2
:1005BC002021494801F0B9F90120FFF705FE034657
:1005CC00012B02D1434B06221A600020FFF7FCFDE1
:1005DC000346012B65D13F4B01221A603F4B1A6831
:1005EC003F4B1B6813443F4A82FB03129211DB17EB
:1005FC00D31A3D4A1360394B1B683A4A82FB0312EB
:10060C009211DB17D31A394A1360344B1B68194605
:10061C00002000F003FE5CE0012240212E4801F096
:10062C0084F9012220212C4801F07FF900220821B5
:10063C00294801F07AF900224FF48071264801F024
:10064C0074F90120FFF7C0FD0346012B02D1214BA9
:10065C0005221A600020FFF7B7FD0346012B22D1BB
:10066C001C4B03221A601D4B1B681E4A82FB031293
:10067C009211DB17D31A1C4A1360184B1A68184BCB
:10068C001B681344174A82FB03129211DB17D31A0F
:10069C00164A1360114B1B681946002000F0BEFD72
:1006AC0017E000BF00E000BF0220FFF78DFD0346FE
:1006BC00012B0ED16421002000F0B0FD00F0DEFB18
:1006CC00044B08221A60054B00221A60044B0022CE
:1006DC001A6080BD6C00002000080140140000204E
:1006EC0018000020D34D6210700000207400002010
:1006FC0080B500AF6D4B1B68072B59D0082B40F011
:10070C00D2806B4B1B68012B0CD16421002000F0B4
:10071C0085FD2021674801F020F94FF48071654870
:10072C0001F01BF90020FFF74FFD0346012B11D1FF
:10073C00614B1B68614A52F82320614B1B681344C0
:10074C005F4A13605E4B1B685E4A934202DD5C4B52
:10075C0000221A600220FFF737FD0346012B10D14F
:10076C00524B07221A6000222021524801F0DDF87A
:10077C0000224FF480714F4801F0D7F84E4B002205
:10078C001A604F4B1B68504A82FB03129211DB1705
:10079C00D01A494B1B68494A52F823304A4A82FB0B
:1007AC0003129211DB17D31A194600F02BFB5DE0F4
:1007BC003F4B1B68012B0BD16421002000F02EFD58
:1007CC0010213C4801F0C9F880213A4801F0C5F8E5
:1007DC000020FFF7F9FC0346012B09D1364B1B68AF
:1007EC00364A52F82320394B1B681344374A13609E
:1007FC000220FFF7E9FC0346012B20D1334B1A688A
:10080C002F4B1B681344324A934214DD2C4B1B684C
:10081C00002B10D100221021264801F086F800226E
:10082C008021244801F081F8204B08221A60224BC9
:10083C0000221A6003E01D4B00221A6034E0234BA7
:10084C001B68214A82FB03129211DB17D01A1A4B38
:10085C001B681A4A52F823301B4A82FB031292116E
:10086C00DB17D31A194600F0CDFA00BF0120FFF7B1
:10087C00ABFC0346012B0BD10F4B1B6801330E4A0B
:10088C0013600D4B1B68042B02DD0B4B00221A600E
:10089C00074B9B68012B07D11421022000F0BEFCF2
:1008AC0000F084F800E000BF80BD00BF6C000020A9
:1008BC0024000020000801406800002000000020F7
:1008CC0014000020D07E0100D34D621018000020CF
:1008DC009F86010080B500AF1F4B1B68192B39D1C7
:1008EC001E4B1B68012B0CD110211D4801F035F853
:1008FC0080211B4801F031F84FF4FA71002000F010
:10090C008DFC0020FFF760FC0346012B23D100F087
:10091C00B5FA114B01221A60124B1A68124B1B6864
:10092C001344124A82FB03129211DB17D31A104A9A
:10093C0013600C4B1B680D4A82FB03129211DB17E0
:10094C00D31A0C4A1360074B1B681946002000F0A1
:10095C0065FC00E000BF80BD6C000020240000207E
:10096C00000801401400002018000020D34D621034
:10097C00700000207400002080B500AF0122082117
:10098C00094800F0D2FF01221021074800F0CDFFEA
:10099C0001222021044800F0C8FF01224021024816
:1009AC0000F0C3FF00BF80BD000C014080B500AF5C
:1009BC00FFF7E2FF254B1B68032B37D801A252F837
:1009CC0023F000BFE1090008F70900080D0A000830
:1009DC00230A0008002208211D4800F0A6FF1D4B29
:1009EC001B68184600F038F821E000221021184846
:1009FC0000F09BFF174B5B68184600F02DF816E0D3
:100A0C0000222021124800F090FF124B9B681846E0
:100A1C0000F022F80BE0002240210D4800F085FF89
:100A2C000C4BDB68184600F017F800E000BF074BD2
:100A3C001B680133054A1360044B1B68032B02DD52
:100A4C00024B00221A6000BF80BD00BF880000204E
:100A5C00000C01407800002080B582B000AF7860B7
:100A6C007B68092B00F2C88101A252F823F000BF69
:100A7C00A50A0008FB0A0008510B0008A70B000888
:100A8C00FD0B0008530C0008A90C0008FF0C000813
:100A9C00550D0008AB0D000800224FF40071D5482D
:100AAC0000F043FF00224FF48061D24800F03DFF7C
:100ABC0000224FF40061CF4800F037FF00224FF4C2
:100ACC008051CC4800F031FF00224FF40051C9484E
:100ADC0000F02BFF00224FF48041C64800F025FFA8
:100AEC0001224FF40041C34800F01FFF85E10122B1
:100AFC004FF40071BF4800F018FF00224FF48061E2
:100B0C00BC4800F012FF00224FF40061B94800F01D
:100B1C000CFF01224FF48051B64800F006FF012271
:100B2C004FF40051B34800F000FF01224FF4804114
:100B3C00B04800F0FAFE01224FF40041AD4800F03D
:100B4C00F4FE5AE100224FF40071AA4800F0EDFEC9
:100B5C0000224FF48061A74800F0E7FE01224FF419
:100B6C000061A44800F0E1FE00224FF48051A1483E
:100B7C0000F0DBFE00224FF400519E4800F0D5FE41
:100B8C0001224FF480419B4800F0CFFE00224FF42D
:100B9C000041984800F0C9FE2FE100224FF400718B
:100BAC00944800F0C2FE00224FF48061914800F09E
:100BBC00BCFE00224FF400618E4800F0B6FE00220D
:100BCC004FF480518B4800F0B0FE01224FF40051DD
:100BDC00884800F0AAFE01224FF48041854800F0BD
:100BEC00A4FE00224FF40041824800F09EFE04E176
:100BFC0001224FF400717F4800F097FE00224FF461
:100C0C0080617C4800F091FE00224FF4006179482D
:100C1C0000F08BFE01224FF48051764800F085FEE7
:100C2C0001224FF40051734800F07FFE00224FF474
:100C3C008041704800F079FE00224FF400416D486D
:100C4C0000F073FED9E000224FF40071694800F007
:100C5C006CFE01224FF48061664800F066FE0022B3
:100C6C004FF40061634800F060FE00224FF48051A5
:100C7C00604800F05AFE01224FF400515D4800F02C
:100C8C0054FE00224FF480415A4800F04EFE0022E0
:100C9C004FF40041574800F048FEAEE000224FF4FC
:100CAC000071544800F041FE01224FF4806151481C
:100CBC0000F03BFE00224FF400614E4800F035FE80
:100CCC0000224FF480514B4800F02FFE00224FF4CD
:100CDC000051484800F029FE00224FF4804145485D
:100CEC0000F023FE00224FF40041424800F01DFEAC
:100CFC0083E000224FF400713E4800F016FE002203
:100D0C004FF480613B4800F010FE00224FF400616C
:100D1C00384800F00AFE01224FF48051354800F0AB
:100D2C0004FE01224FF40051324800F0FEFD012276
:100D3C004FF480412F4800F0F8FD01224FF40041A0
:100D4C002C4800F0F2FD58E000224FF400712948C5
:100D5C0000F0EBFD00224FF48061264800F0E5FD29
:100D6C0000224FF40061234800F0DFFD00224FF415
:100D7C008051204800F0D9FD00224FF400511D484D
:100D8C0000F0D3FD00224FF480411A4800F0CDFD55
:100D9C0000224FF40041174800F0C7FD2DE000225F
:100DAC004FF40071134800F0C0FD00224FF4806135
:100DBC00104800F0BAFD00224FF400610D4800F01D
:100DCC00B4FD00224FF480510A4800F0AEFD012220
:100DDC004FF40051074800F0A8FD00224FF4804169
:100DEC00044800F0A2FD00224FF40041014800F03D
:100DFC009CFD02E00008014000BF00BF0837BD4663
:100E0C0080BD00BF80B483B000AF786039607B6870
:100E1C00184A82FB03129210DB17D31A164A13607E
:100E2C007968144B83FB01239A10CB17D21A134603
:100E3C009B0013445B00CA1A0F4B5A603B680D4A67
:100E4C0082FB03129210DB17D31A0B4A936039689A
:100E5C00084B83FB01239A10CB17D21A13469B0025
:100E6C0013445B00CA1A044BDA6000BF0C37BD4652
:100E7C0080BC7047676666667800002080B500AF5E
:100E8C00002208210F4800F050FD002210210D48CF
:100E9C0000F04BFD002220210A4800F046FD002204
:100EAC004021084800F041FD00228021054800F057
:100EBC003CFD00224FF48071024800F036FD00BF6B
:100ECC0080BD00BF0008014080B500AF00F02CFAD7
:100EDC0000F028F800F0AEF800F060F80E4801F0D1
:100EEC0081F94FF47A71042000F098F9FFF786F934
:100EFC00FFF744FBFFF7EEFCFFF7FAFB074B1B6910
:100F0C00012BF3D10421064800F027FD4FF47A7130
:100F1C00042000F083F9E9E7A00000202400002061
:100F2C000008014080B590B000AF07F118032822EB
:100F3C000021184601F006FD3B1D00221A605A6084
:100F4C009A60DA601A610223BB610123BB62102331
:100F5C00FB6200237B6307F11803184600F016FDB3
:100F6C000346002B01D000F0C5F80F237B60002353
:100F7C00BB600023FB6000233B6100237B613B1DB6
:100F8C000021184600F082FF0346002B01D000F030
:100F9C00B1F800BF4037BD4680BD000080B586B0BB
:100FAC0000AF07F1080300221A605A609A60DA60F9
:100FBC003B4600221A605A601D4B4FF080421A606B
:100FCC001B4B41F63F725A60194B00229A60184B2A
:100FDC000922DA60164B00221A61154B00229A6125
:100FEC00134801F0AFF80346002B01D000F082F853
:100FFC004FF48053BB6007F1080319460C4801F00D
:10100C002DFA0346002B01D000F074F800233B604E
:10101C0000237B603B461946054801F005FC03465E
:10102C00002B01D000F066F800BF1837BD4680BD1C
:10103C00A000002080B586B000AF07F108030022A5
:10104C001A605A609A60DA60274B9B69264A43F013
:10105C0004039361244B9B6903F004037B607B685E
:10106C00214B9B69204A43F0080393611E4B9B69FB
:10107C0003F008033B603B6800224FF6FC711B48F1
:10108C0000F053FC00227821194800F04EFC4FF67A
:10109C00FC73BB600123FB6000233B6102237B617B
:1010AC0007F108031946114800F0AEFA0723BB609C
:1010BC000023FB6001233B6107F1080319460C4830
:1010CC0000F0A2FA7823BB600123FB6000233B6194
:1010DC0002237B6107F108031946054800F094FAD6
:1010EC0000BF1837BD4680BD00100240000801400B
:1010FC00000C014080B400AF72B600BFFEE70000E8
:10110C0080B485B000AF154B9B69144A43F00103C2
:10111C009361124B9B6903F00103BB60BB680F4BDF
:10112C00DB690E4A43F08053D3610C4BDB6903F04F
:10113C0080537B607B680A4B5B68FB60FB6823F029
:10114C00E063FB60FB6843F08063FB60044AFB6870
:10115C00536000BF1437BD4680BC7047001002407E
:10116C000000014080B584B000AF78607B681B68DC
:10117C00B3F1804F13D10C4BDB690B4A43F00103E5
:10118C00D361094BDB6903F00103FB60FB680022B0
:10119C0000211C2000F001FA1C2000F01AFA00BFFC
:1011AC001037BD4680BD00BF0010024080B400AFB8
:1011BC00FEE780B400AFFEE780B400AFFEE780B47A
:1011CC0000AFFEE780B400AFFEE780B400AF00BF15
:1011DC00BD4680BC704780B400AF00BFBD4680BC2C
:1011EC00704780B400AF00BFBD4680BC704780B56F
:1011FC0000AF00F0DFF800BF80BD000080B500AF8D
:10120C00024801F03BF800BF80BD00BFA0000020E9
:10121C0080B400AF00BFBD4680BC704780B483B0C3
:10122C0000AF786039603B68094A82FB0312921068
:10123C00DB17D21A07497B6841F82320064A7B68E2
:10124C00002142F8231000BF0C37BD4680BC70470C
:10125C00676666668C0000202400002080B483B092
:10126C0000AF00237B601CE0134A7B6852F82330EC
:10127C00002B13DD104A7B6852F823305A1E0E499E
:10128C007B6841F823200C4A7B6852F82330002BF2
:10129C0004DC0A4A7B68012142F823107B68013385
:1012AC007B60074B1B687A689A42DDDB00BF00BF8E
:1012BC000C37BD4680BC70478C00002024000020F9
:1012CC002000002080B582B000AF7860FEF738FFB8
:1012DC00FFF7C4FF00BF0837BD4680BDFFF798FF7E
:1012EC000B480C490C4A002302E0D458C450043378
:1012FC00C4188C42F9D3094A094C002301E013604D
:10130C000432A242FBD301F0F9FAFFF7DDFD70477E
:10131C000000002040000020A4290008400000200C
:10132C00EC000020FEE7000080B500AF084B1B6806
:10133C00074A43F010031360032000F023F90F2039
:10134C0000F008F8FFF7DCFE0023184680BD00BF54
:10135C000020024080B582B000AF7860124B1A6852
:10136C00124B1B7819464FF47A73B3FBF1F3B2FBB3
:10137C00F3F3184600F03BF90346002B01D0012390
:10138C000EE07B680F2B0AD8002279684FF0FF30F3
:10139C0000F003F9064A7B681360002300E0012388
:1013AC0018460837BD4680BD1C0000203C000020BC
:1013BC003800002080B400AF054B1B781A46054B53
:1013CC001B681344034A136000BFBD4680BC7047C2
:1013DC003C000020E800002080B400AF024B1B68EA
:1013EC001846BD4680BC7047E800002080B485B02C
:1013FC0000AF78607B6803F00703FB600C4BDB6885
:10140C00BB60BA684FF6FF031340BB60FB681A025F
:10141C00BB68134343F0BF6343F40033BB60044A1F
:10142C00BB68D36000BF1437BD4680BC704700BF9B
:10143C0000ED00E080B400AF044BDB681B0A03F046
:10144C0007031846BD4680BC704700BF00ED00E0A6
:10145C0080B483B000AF0346FB7197F90730002BC3
:10146C000BDBFB7903F01F02064997F907305B0988
:10147C00012000FA02F241F8232000BF0C37BD46D0
:10148C0080BC704700E100E080B483B000AF03463D
:10149C003960FB7197F90730002B0ADB3B68DAB235
:1014AC000C4997F907301201D2B20B4483F8002390
:1014BC000AE03B68DAB20849FB7903F00F03043BFE
:1014CC001201D2B20B441A7600BF0C37BD4680BC59
:1014DC00704700BF00E100E000ED00E080B489B08F
:1014EC0000AFF860B9607A60FB6803F00703FB613A
:1014FC00FB69C3F10703042B28BF0423BB61FB6901
:10150C000433062B02D9FB69033B00E000237B610B
:10151C004FF0FF32BB6902FA03F3DA43BB681A409F
:10152C007B699A404FF0FF317B6901FA03F3D94391
:10153C007B680B40134318462437BD4680BC70476C
:10154C0080B582B000AF78607B68013BB3F1807FDF
:10155C0001D301230FE00A4A7B68013B53600F2142
:10156C004FF0FF30FFF790FF054B00229A60044BC1
:10157C0007221A60002318460837BD4680BD00BFFD
:10158C0010E000E080B582B000AF78607868FFF7BB
:10159C002DFF00BF0837BD4680BD80B586B000AFBB
:1015AC000346B9607A60FB7300237B61FFF742FF4F
:1015BC0078617A68B9687869FFF790FF024697F905
:1015CC000F3011461846FFF75FFF00BF1837BD46B6
:1015DC0080BD80B582B000AF0346FB7197F9073030
:1015EC001846FFF735FF00BF0837BD4680BD80B5F4
:1015FC0082B000AF78607868FFF7A2FF0346184608
:10160C000837BD4680BD000080B48BB000AF786059
:10161C00396000237B6200233B6248E101227B6A34
:10162C0002FA03F3FB613B681B68FA691340BB6168
:10163C00BA69FB699A4240F037813B685B68A34A00
:10164C0093425ED0A14A934275D8A14A934258D096
:10165C009F4A93426FD89F4A934252D09D4A9342DD
:10166C0069D89D4A93424CD09B4A934263D89B4A7B
:10167C00934246D0994A93425DD8122B2AD8122B0A
:10168C0059D801A252F823F00F170008E9160008E8
:10169C00FB1600083D170008431700084317000805
:1016AC0043170008431700084317000843170008A6
:1016BC004317000843170008431700084317000896
:1016CC00431700084317000843170008F1160008D9
:1016DC0005170008824A934213D02CE03B68DB6864
:1016EC003B6229E03B68DB6804333B6224E03B68E7
:1016FC00DB6808333B621FE03B68DB680C333B6202
:10170C001AE03B689B68002B02D104233B6213E078
:10171C003B689B68012B05D108233B627B68FA6907
:10172C001A6109E008233B627B68FA695A6103E09D
:10173C0000233B6200E000BFBB69FF2B01D87B6834
:10174C0001E07B6804337B61BB69FF2B02D87B6AA9
:10175C009B0002E07B6A083B9B003B617B691A683B
:10176C000F213B6901FA03F3DB431A40396A3B69E9
:10177C0001FA03F31A437B691A603B685B6803F058
:10178C008053002B00F09080564B9B69554A43F0D8
:10179C0001039361534B9B6903F00103BB60BB686E
:1017AC00514A7B6A9B08023352F82330FB607B6AF8
:1017BC0003F003039B000F2202FA03F3DB43FA68E6
:1017CC001340FB607B68494A93420DD07B68484AC2
:1017DC00934207D07B68474A934201D1022304E02D
:1017EC00032302E0012300E000237A6A02F00302E3
:1017FC0092009340FA681343FB603B497B6A9B0859
:10180C000233FA6841F823203B685B6803F48013C9
:10181C00002B06D0384B9A683749BB6913438B6051
:10182C0006E0354B9A68BB69DB43334913408B6048
:10183C003B685B6803F40013002B06D02E4BDA6870
:10184C002D49BB691343CB6006E02B4BDA68BB69AF
:10185C00DB4329491340CB603B685B6803F40033DE
:10186C00002B06D0244B5A682349BB6913434B60A9
:10187C0006E0214B5A68BB69DB431F4913404B60A0
:10188C003B685B6803F48033002B06D01A4B1A6854
:10189C001949BB6913430B6006E0174B1A68BB6907
:1018AC00DB43154913400B607B6A01337B623B6859
:1018BC001A687B6A22FA03F3002B7FF4AFAE00BFE9
:1018CC0000BF2C37BD4680BC704700BF00003210F3
:1018DC000000311000002210000021100000121036
:1018EC0000001110001002400000014000080140EF
:1018FC00000C0140001001400004014080B485B090
:10190C0000AF78600B467B807B689A687B881340BD
:10191C00002B02D00123FB7301E00023FB73FB7B44
:10192C0018461437BD4680BC704780B483B000AFF6
:10193C0078600B467B8013467B707B78002B03D042
:10194C007A887B681A6103E07B881A047B681A61C9
:10195C0000BF0C37BD4680BC704780B485B000AF6B
:10196C0078600B467B807B68DB68FB607A88FB6861
:10197C0013401A04FB68D9437B880B401A437B68DD
:10198C001A6100BF1437BD4680BC704780B586B065
:10199C0000AF78607B68002B01D101236CE27B687F
:1019AC001B6803F00103002B00F08780924B5B68EF
:1019BC0003F00C03042B0CD08F4B5B6803F00C036F
:1019CC00082B12D18C4B5B6803F48033B3F5803F4A
:1019DC000BD1894B1B6803F40033002B6CD07B6854
:1019EC005B68002B68D1012346E27B685B68B3F52A
:1019FC00803F06D1804B1B687F4A43F480331360D1
:101A0C002EE07B685B68002B0CD17B4B1B687A4A01
:101A1C0023F480331360784B1B68774A23F48023BC
:101A2C0013601DE07B685B68B3F5A02F0CD1724B83
:101A3C001B68714A43F4802313606F4B1B686E4A1A
:101A4C0043F4803313600BE06B4B1B686A4A23F43E
:101A5C0080331360684B1B68674A23F48023136040
:101A6C007B685B68002B13D0FFF7B6FC386108E08D
:101A7C00FFF7B2FC02463B69D31A642B01D903234E
:101A8C00FAE15D4B1B6803F40033002BF0D014E03B
:101A9C00FFF7A2FC386108E0FFF79EFC02463B69A9
:101AAC00D31A642B01D90323E6E1534B1B6803F4CF
:101ABC000033002BF0D100E000BF7B681B6803F003
:101ACC000203002B63D04C4B5B6803F00C03002B20
:101ADC000BD0494B5B6803F00C03082B1CD1464B15
:101AEC005B6803F48033002B16D1434B1B6803F067
:101AFC000203002B05D07B681B69012B01D001234D
:101B0C00BAE13D4B1B6823F0F8027B685B69DB0094
:101B1C00394913430B603AE07B681B69002B20D0DA
:101B2C00364B01221A60FFF757FC386108E0FFF7CB
:101B3C0053FC02463B69D31A022B01D903239BE1C8
:101B4C002D4B1B6803F00203002BF0D02A4B1B68B3
:101B5C0023F0F8027B685B69DB00274913430B60B9
:101B6C0015E0264B00221A60FFF736FC386108E0BE
:101B7C00FFF732FC02463B69D31A022B01D903232F
:101B8C007AE11D4B1B6803F00203002BF0D17B683C
:101B9C001B6803F00803002B3AD07B689B69002B71
:101BAC0019D0174B01221A60FFF716FC386108E0B8
:101BBC00FFF712FC02463B69D31A022B01D903230F
:101BCC005AE10D4B5B6A03F00203002BF0D00120AD
:101BDC0000F09AFA1CE00A4B00221A60FFF7FCFB9B
:101BEC0038610FE0FFF7F8FB02463B69D31A022B72
:101BFC0008D9032340E100BF00100240000042421C
:101C0C00800442429E4B5B6A03F00203002BE9D135
:101C1C007B681B6803F00403002B00F0A6800023F4
:101C2C00FB75974BDB6903F08053002B0DD1944B64
:101C3C00DB69934A43F08053D361914BDB6903F02A
:101C4C008053BB60BB680123FB758E4B1B6803F490
:101C5C008073002B18D18B4B1B688A4A43F480731A
:101C6C001360FFF7B9FB386108E0FFF7B5FB0246DC
:101C7C003B69D31A642B01D90323FDE0814B1B680C
:101C8C0003F48073002BF0D07B68DB68012B06D14A
:101C9C007B4B1B6A7A4A43F0010313622DE07B688D
:101CAC00DB68002B0CD1764B1B6A754A23F00103C1
:101CBC001362734B1B6A724A23F0040313621CE019
:101CCC007B68DB68052B0CD16D4B1B6A6C4A43F0AF
:101CDC00040313626A4B1B6A694A43F001031362E3
:101CEC000BE0674B1B6A664A23F001031362644BDB
:101CFC001B6A634A23F0040313627B68DB68002BC6
:101D0C0015D0FFF769FB38610AE0FFF765FB024667
:101D1C003B69D31A41F28832934201D90323ABE0D9
:101D2C00574B1B6A03F00203002BEED014E0FFF7B5
:101D3C0053FB38610AE0FFF74FFB02463B69D31AAD
:101D4C0041F28832934201D9032395E04C4B1B6A34
:101D5C0003F00203002BEED1FB7D012B05D1484B88
:101D6C00DB69474A23F08053D3617B68DB69002B26
:101D7C0000F08180424B5B6803F00C03082B61D0B0
:101D8C007B68DB69022B46D13F4B00221A60FFF7C0
:101D9C0023FB386108E0FFF71FFB02463B69D31AAF
:101DAC00022B01D9032367E0354B1B6803F000734A
:101DBC00002BF0D17B681B6AB3F5803F08D1304B08
:101DCC005B6823F400327B689B682D4913434B609E
:101DDC002B4B5B6823F474127B68196A7B685B6A13
:101DEC000B43274913434B60274B01221A60FFF723
:101DFC00F3FA386108E0FFF7EFFA02463B69D31AB1
:101E0C00022B01D9032337E01D4B1B6803F0007331
:101E1C00002BF0D02FE01C4B00221A60FFF7DCFAED
:101E2C00386108E0FFF7D8FA02463B69D31A022B57
:101E3C0001D9032320E0124B1B6803F00073002B25
:101E4C00F0D118E07B68DB69012B01D1012313E091
:101E5C000B4B5B68FB60FB6803F480327B681B6A8E
:101E6C009A4206D1FB6803F470127B685B6A9A4253
:101E7C0001D0012300E0002318461837BD4680BD71
:101E8C0000100240007000406000424280B584B0F7
:101E9C0000AF786039607B68002B01D10123D0E062
:101EAC006A4B1B6803F007033A689A4210D9674BD8
:101EBC001B6823F0070265493B6813430B60634BB7
:101ECC001B6803F007033A689A4201D00123B8E07B
:101EDC007B681B6803F00203002B20D07B681B6817
:101EEC0003F00403002B05D0594B5B68584A43F4AC
:101EFC00E06353607B681B6803F00803002B05D07C
:101F0C00534B5B68524A43F460535360504B5B68CD
:101F1C0023F0F0027B689B684D4913434B607B6850
:101F2C001B6803F00103002B40D07B685B68012B1E
:101F3C0007D1474B1B6803F40033002B15D1012349
:101F4C007FE07B685B68022B07D1414B1B6803F079
:101F5C000073002B09D1012373E03D4B1B6803F088
:101F6C000203002B01D101236BE0394B5B6823F09A
:101F7C0003027B685B68364913434B60FFF72CFA0E
:101F8C00F8600AE0FFF728FA0246FB68D31A41F220
:101F9C008832934201D9032353E02D4B5B6803F045
:101FAC000C027B685B689B009A42EBD1274B1B6849
:101FBC0003F007033A689A4210D2244B1B6823F0B3
:101FCC00070222493B6813430B60204B1B6803F04C
:101FDC0007033A689A4201D0012332E07B681B6800
:101FEC0003F00403002B08D0194B5B6823F4E06268
:101FFC007B68DB68164913434B607B681B6803F0F6
:10200C000803002B09D0124B5B6823F460527B68E9
:10201C001B69DB000E4913434B6000F021F80246AC
:10202C000B4B5B681B0903F00F030A49CB5C22FACC
:10203C0003F3094A1360094B1B681846FFF78AF92A
:10204C00002318461037BD4680BD00BF002002405B
:10205C0000100240782900081C00002038000020E5
:10206C0080B487B000AF0023FB600023BB6000236B
:10207C007B6100237B6000233B611E4B5B68FB6034
:10208C00FB6803F00C03042B02D0082B03D027E0D1
:10209C00194B3B6127E0FB689B0C03F00F03174ABD
:1020AC00D35C7B60FB6803F48033002B10D0114BA6
:1020BC005B685B0C03F00103114AD35CBB607B686B
:1020CC000D4A02FB03F2BB68B2FBF3F37B6104E045
:1020DC007B680C4A02FB03F37B617B693B6102E08A
:1020EC00054B3B6100BF3B6918461C37BD4680BCA5
:1020FC00704700BF0010024000127A0088290008C7
:10210C009829000800093D0080B485B000AF7860C4
:10211C000A4B1B680A4AA2FB03235B0A7A6802FB80
:10212C0003F3FB6000BFFB685A1EFA60002BF9D169
:10213C0000BF00BF1437BD4680BC70471C00002098
:10214C00D34D621080B582B000AF78607B68002BF5
:10215C0001D1012341E07B6893F83D30DBB2002BC9
:10216C0006D17B68002283F83C207868FEF7FAFFE2
:10217C007B68022283F83D207B681A687B680433F5
:10218C001946104600F056FA7B68012283F8462067
:10219C007B68012283F83E207B68012283F83F2074
:1021AC007B68012283F840207B68012283F8412060
:1021BC007B68012283F842207B68012283F843204C
:1021CC007B68012283F844207B68012283F8452038
:1021DC007B68012283F83D20002318460837BD4652
:1021EC0080BD000080B485B000AF78607B6893F848
:1021FC003D30DBB2012B01D0012335E07B6802229C
:10220C0083F83D207B681B68DA687B681B6842F0AA
:10221C000102DA607B681B68164A934209D07B681E
:10222C001B68B3F1804F04D07B681B68124A934241
:10223C0011D17B681B689B6803F00703FB60FB688C
:10224C00062B10D07B681B681A687B681B6842F0F1
:10225C0001021A6007E07B681B681A687B681B68C0
:10226C0042F001021A60002318461437BD4680BCA8
:10227C00704700BF002C01400004004080B584B0C2
:10228C0000AF78607B681B68DB68FB607B681B6851
:10229C001B69BB60BB6803F00203002B20D0FB68FA
:1022AC0003F00203002B1BD07B681B686FF002024B
:1022BC001A617B6801221A777B681B689B6903F0A3
:1022CC000303002B03D0786800F098F905E07868D8
:1022DC0000F08BF9786800F09AF97B6800221A7785
:1022EC00BB6803F00403002B20D0FB6803F004034D
:1022FC00002B1BD07B681B686FF004021A617B6893
:10230C0002221A777B681B689B6903F44073002BCD
:10231C0003D0786800F072F905E0786800F065F990
:10232C00786800F074F97B6800221A77BB6803F0B8
:10233C000803002B20D0FB6803F00803002B1BD0F4
:10234C007B681B686FF008021A617B6804221A779D
:10235C007B681B68DB6903F00303002B03D07868F0
:10236C0000F04CF905E0786800F03FF9786800F06F
:10237C004EF97B6800221A77BB6803F01003002B20
:10238C0020D0FB6803F01003002B1BD07B681B686C
:10239C006FF010021A617B6808221A777B681B6841
:1023AC00DB6903F44073002B03D0786800F026F946
:1023BC0005E0786800F019F9786800F028F97B6876
:1023CC0000221A77BB6803F00103002B0CD0FB68CA
:1023DC0003F00103002B07D07B681B686FF0010230
:1023EC001A617868FEF76EFFBB6803F08003002B60
:1023FC000CD0FB6803F08003002B07D07B681B68B4
:10240C006FF080021A61786800F06FFABB6803F015
:10241C004003002B0CD0FB6803F04003002B07D0CB
:10242C007B681B686FF040021A61786800F0F8F85E
:10243C00BB6803F02003002B0CD0FB6803F02003D7
:10244C00002B07D07B681B686FF020021A6178683C
:10245C0000F042FA00BF1037BD4680BD80B584B095
:10246C0000AF786039600023FB737B6893F83C30D5
:10247C00012B01D10223B4E07B68012283F83C20BC
:10248C007B68022283F83D207B681B689B68BB60DD
:10249C00BB6823F07703BB60BB6823F47F43BB604E
:1024AC007B681B68BA689A603B681B68B3F5005F71
:1024BC003ED0B3F5005F00F28780B3F5805F00F08B
:1024CC008680B3F5805F7FD8702B1AD0702B7BD8A9
:1024DC00602B50D0602B77D8502B3CD0502B73D81E
:1024EC00402B58D0402B6FD8302B64D0302B6BD86E
:1024FC00202B60D0202B67D8002B5CD0102B5AD00F
:10250C0062E07B6818683B6899683B685A683B686E
:10251C00DB6800F06AF97B681B689B68BB60BB6872
:10252C0043F07703BB607B681B68BA689A604FE026
:10253C007B6818683B6899683B685A683B68DB683D
:10254C0000F053F97B681B689A687B681B6842F43F
:10255C0080429A603CE07B6818683B6859683B682D
:10256C00DB681A4600F0CAF87B681B6850211846D5
:10257C0000F021F92CE07B6818683B6859683B68CF
:10258C00DB681A4600F0E8F87B681B686021184687
:10259C0000F011F91CE07B6818683B6859683B68CF
:1025AC00DB681A4600F0AAF87B681B6840211846C5
:1025BC0000F001F90CE07B681A683B681B6819464F
:1025CC00104600F0F8F803E00123FB7300E000BFB5
:1025DC007B68012283F83D207B68002283F83C2035
:1025EC00FB7B18461037BD4680BD80B483B000AF6E
:1025FC00786000BF0C37BD4680BC704780B483B098
:10260C0000AF786000BF0C37BD4680BC704780B40B
:10261C0083B000AF786000BF0C37BD4680BC7047FC
:10262C0080B483B000AF786000BF0C37BD4680BC6F
:10263C007047000080B485B000AF786039607B686B
:10264C001B68FB607B682B4A934207D07B68B3F115
:10265C00804F03D07B68284A934208D1FB6823F053
:10266C007003FB603B685B68FA681343FB607B6834
:10267C00204A934207D07B68B3F1804F03D07B682C
:10268C001D4A934208D1FB6823F44073FB603B68FE
:10269C00DB68FA681343FB60FB6823F080023B683D
:1026AC005B691343FB607B68FA681A603B689A6845
:1026BC007B68DA623B681A687B689A627B680D4AB1
:1026CC00934203D13B681A697B681A637B680122C9
:1026DC005A617B681B6903F00103002B05D07B68F2
:1026EC001B6923F001027B681A6100BF1437BD46D9
:1026FC0080BC7047002C01400004004080B487B0BF
:10270C0000AFF860B9607A60FB681B6A7B61FB689C
:10271C001B6A23F00102FB681A62FB689B693B6130
:10272C003B6923F0F0033B617B681B013A6913435F
:10273C003B617B6923F00A037B617A69BB681343B5
:10274C007B61FB683A699A61FB687A691A6200BF1F
:10275C001C37BD4680BC704780B487B000AFF860B2
:10276C00B9607A60FB681B6A7B61FB681B6A23F0AB
:10277C001002FB681A62FB689B693B613B6923F49E
:10278C0070433B617B681B033A6913433B617B6974
:10279C0023F0A0037B61BB681B017A6913437B6147
:1027AC00FB683A699A61FB687A691A6200BF1C3748
:1027BC00BD4680BC704780B485B000AF786039608E
:1027CC007B689B68FB60FB6823F07003FB603A68D6
:1027DC00FB68134343F00703FB607B68FA689A605D
:1027EC0000BF1437BD4680BC704780B487B000AFC3
:1027FC00F860B9607A603B60FB689B687B617B69C1
:10280C0023F47F437B613B681A027B681A43BB68E5
:10281C0013437A6913437B61FB687A699A6000BF42
:10282C001C37BD4680BC704780B485B000AF786063
:10283C0039607B6893F83C30012B01D1022341E0D5
:10284C007B68012283F83C207B68022283F83D20C0
:10285C007B681B685B68FB607B681B689B68BB6064
:10286C00FB6823F07003FB603B681B68FA6813433A
:10287C00FB607B681B68FA685A607B681B68144AAB
:10288C00934209D07B681B68B3F1804F04D07B68FE
:10289C001B68104A93420CD1BB6823F08003BB60C9
:1028AC003B685B68BA681343BB607B681B68BA689B
:1028BC009A607B68012283F83D207B68002283F8B4
:1028CC003C20002318461437BD4680BC704700BF1F
:1028DC00002C01400004004080B483B000AF78604D
:1028EC0000BF0C37BD4680BC704780B483B000AFCE
:1028FC00786000BF0C37BD4680BC704770B50026B1
:10290C000C4D0D4C641BA410A64209D100F022F80A
:10291C0000260A4D0A4C641BA410A64205D170BDBA
:10292C0055F8043B98470136EEE755F8043B9847B9
:10293C000136F2E79C2900089C2900089C29000814
:10294C00A029000803460244934200D1704703F8C3
:10295C00011BF9E7F8B500BFF8BC08BC9E467047F0
:0C296C00F8B500BFF8BC08BC9E467047E0
:102978000000000000000000010203040607080927
:1029880002030405060708090A0B0C0D0E0F1010A8
:042998000102000038
:04299C0031010008FD
:0429A0000D0100081D
:1029A400E8030000D007000088130000102700008F
:1029B400204E0000102700008813000000127A0047
:1029C40005000000000000000000000000000000FE
:1029D40001000000000000001000000001000000E1
:04000005080012E9F4
:00000001FF
