:020000040800F2
:1000000000280020411100089D0F0008A50F0008DE
:10001000AD0F0008B50F0008BD0F0008000000007C
:10002000000000000000000000000000C50F0008F4
:10003000D10F000800000000DD0F0008E90F0008E4
:100040008911000889110008891100088911000828
:100050008911000889110008891100088911000818
:100060008911000889110008891100088911000808
:1000700089110008891100088911000889110008F8
:1000800089110008891100088911000889110008E8
:1000900089110008891100088911000889110008D8
:1000A00089110008891100088911000889110008C8
:1000B000F50F0008891100080000000089110008F0
:1000C00089110008000000000000000089110008EC
:1000D00000000000891100088911000800000000DC
:1000E000891100088911000889110008000000002A
:1000F0000000000000000000000000000000000000
:0C01000000000000000000005FF808F1A3
:10010C0010B5054C237833B9044B13B10448AFF345
:10011C0000800123237010BD7C0000200000000033
:10012C005C29000808B5034B1BB103490348AFF326
:10013C00008008BD00000000800000205C29000841
:10014C0080B500AF1F4B1B78002B05D01D4B1B78C7
:10015C00013BDAB21B4B1A701A4B1B78002B0CD1DB
:10016C000121194801F0F8FA0346002B05D1174B71
:10017C0001221A60134B14221A70124B1B78002B9D
:10018C000CD10221104801F0E7FA0346002B05D1EF
:10019C000E4B01225A600B4B14221A70094B1B7820
:1001AC00002B0CD10421084801F0D6FA0346002B91
:1001BC0005D1064B01229A60024B14221A7000BF23
:1001CC0080BD00BFA4000020000C0140980000205E
:1001DC0080B483B000AF7860094A7B6852F8233052
:1001EC00012B06D1064A7B68002142F8231001231B
:1001FC0000E0002318460C37BD4680BC704700BF9A
:10020C009800002080B500AF9C4B1B68042B00F2BB
:10021C00338101A252F823F0390200088D02000844
:10022C00ED020008130300086103000800F014FC41
:10023C00924B01221A60924B1A68924B1B68134422
:10024C00914A82FB03129211DB17D31A8F4A136067
:10025C008B4B1B688C4A82FB03129211DB17D31A4F
:10026C008B4A1360894B1B68894A126811461846E1
:10027C0000F0B6FB00220021864800F04FFDA5E0FF
:10028C0000221021844801F07EFA0022402182488D
:10029C0001F079FA012208217F4801F074FA012259
:1002AC004FF480717C4801F06EFA744B02221A6094
:1002BC00734B1B6800221946764800F02FFD012075
:1002CC00FFF786FF0346012B7BD1744B1B78184636
:1002DC0000F0CCFD694B05221A6000F03BF9CCE034
:1002EC0000224FF480716C4801F04DFA01228021FC
:1002FC00694801F048FA634B1B68002219466848AC
:10030C0000F00CFD62E000220821634801F03BFA8A
:10031C0000228021604801F036FA012220215E483B
:10032C0001F031FA012240215B4801F02CFA544BC8
:10033C001B68002219465B4800F0F0FC0120FFF717
:10034C0047FF0346012B3ED14C4B06221A6000F0AE
:10035C0001F992E0012210214F4801F014FA002219
:10036C0020214D4801F00FFA4F4B1B68012B2CD16B
:10037C00424B01221A60424B1B681946002000F0C8
:10038C0079FE3F4B1A683F4B1B6813443E4A82FB75
:10039C0003129211DB17D31A3C4A1360384B1B68BB
:1003AC00394A82FB03129211DB17D31A384A1360B5
:1003BC00364B1B68364A12681146184600F010FB83
:1003CC0003E000BF02E000BF00E000BF2F4B1B6842
:1003DC002F4A12681146184600F002FB324B9B68FC
:1003EC00012B05D16421022000F044FE00F0CCF872
:1003FC002D4B5B68012B16D14FF47A71012000F064
:10040C0039FE224B1B68013B204A1360204B1B68B2
:10041C00013B1F4A13601D4B1B681D4A1268114695
:10042C00184600F0DDFA0020FFF7D2FE0346012B40
:10043C000CD100F011FB00F08DF8104B19221A6052
:10044C004FF4FA71002000F015FE16E00220FFF7C1
:10045C00BFFE0346012B10D10A4B00221A60084B39
:10046C0000221A6000F0F8FA044B08221A6064218A
:10047C00002000F0FFFD00E000BF80BDA8000020C0
:10048C000000002004000020D34D6210AC000020BE
:10049C00B00000201102000800080140A500002057
:1004AC00B9040008110500081000002080B400AF4A
:1004BC000E4B03221A600E4B1B680E4A82FB031272
:1004CC009211DB17D31A0C4A1360094B1A680B4BA9
:1004DC001B681344074A82FB03129211DB17D31AD1
:1004EC00074A136000BFBD4680BC7047A8000020BF
:1004FC0000000020D34D6210AC000020040000204E
:10050C00B000002080B400AF0D4B04221A600D4BDC
:10051C001B680D4A82FB03129211DB17D31A0B4A8C
:10052C001360084B1B68084A82FB03129211DB17FD
:10053C00D31A074A136000BFBD4680BC704700BF8A
:10054C00A800002004000020D34D6210AC00002055
:10055C00B000002080B500AF01220821094801F04D
:10056C0012F901221021074801F00DF90122202176
:10057C00044801F008F901224021024801F003F976
:10058C0000BF80BD000C014080B500AFFFF7E2FF5B
:10059C00254B1B68032B37D801A252F823F000BF60
:1005AC00BD050008D3050008E9050008FF05000893
:1005BC00002208211D4801F0E6F81D4B1B68184667
:1005CC0000F038F821E000221021184801F0DBF887
:1005DC00174B5B68184600F02DF816E0002220211E
:1005EC00124801F0D0F8124B9B68184600F022F824
:1005FC000BE0002240210D4801F0C5F80C4BDB68E4
:10060C00184600F017F800E000BF074B1B680133D9
:10061C00054A1360044B1B68032B02DD024B0022BE
:10062C001A6000BF80BD00BFC4000020000C014058
:10063C00B400002080B582B000AF78607B68092BD5
:10064C0000F2C88101A252F823F000BF8106000815
:10065C00D70600082D07000883070008D9070008F3
:10066C002F08000885080008DB080008310900087D
:10067C008709000800224FF40071D54801F083F877
:10068C0000224FF48061D24801F07DF800224FF433
:10069C000061CF4801F077F800224FF48051CC482C
:1006AC0001F071F800224FF40051C94801F06BF8C9
:1006BC0000224FF48041C64801F065F801224FF446
:1006CC000041C34801F05FF885E101224FF400714D
:1006DC00BF4801F058F800224FF48061BC4801F08B
:1006EC0052F800224FF40061B94801F04CF8012295
:1006FC004FF48051B64801F046F801224FF40051F6
:10070C00B34801F040F801224FF48041B04801F0A9
:10071C003AF801224FF40041AD4801F034F85AE1A7
:10072C0000224FF40071AA4801F02DF800224FF47A
:10073C008061A74801F027F801224FF40061A4481A
:10074C0001F021F800224FF48051A14801F01BF870
:10075C0000224FF400519E4801F015F801224FF48D
:10076C0080419B4801F00FF800224FF4004198485B
:10077C0001F009F82FE100224FF40071944801F0C8
:10078C0002F800224FF48061914800F0FCFF002237
:10079C004FF400618E4800F0F6FF00224FF48051B8
:1007AC008B4800F0F0FF01224FF40051884800F014
:1007BC00EAFF01224FF48041854800F0E4FF00225B
:1007CC004FF40041824800F0DEFF04E101224FF4B7
:1007DC0000717F4800F0D7FF00224FF480617C4805
:1007EC0000F0D1FF00224FF40061794800F0CBFFFC
:1007FC0001224FF48051764800F0C5FF01224FF4DE
:10080C000051734800F0BFFF00224FF48041704844
:10081C0000F0B9FF00224FF400416D4800F0B3FF27
:10082C00D9E000224FF40071694800F0ACFF0122BE
:10083C004FF48061664800F0A6FF00224FF400617F
:10084C00634800F0A0FF00224FF48051604800F094
:10085C009AFF01224FF400515D4800F094FF0022F2
:10086C004FF480415A4800F08EFF00224FF40041B3
:10087C00574800F088FFAEE000224FF40071544856
:10088C0000F081FF01224FF48061514800F07BFFA2
:10089C0000224FF400614E4800F075FF00224FF427
:1008AC0080514B4800F06FFF00224FF40051484834
:1008BC0000F069FF00224FF48041454800F063FFCF
:1008CC0000224FF40041424800F05DFF83E000221B
:1008DC004FF400713E4800F056FF00224FF4806147
:1008EC003B4800F050FF00224FF40061384800F004
:1008FC004AFF01224FF48051354800F044FF012299
:10090C004FF40051324800F03EFF01224FF4804179
:10091C002F4800F038FF01224FF400412C4800F022
:10092C0032FF58E000224FF40071294800F02BFFF1
:10093C0000224FF48061264800F025FF00224FF47E
:10094C000061234800F01FFF00224FF48051204823
:10095C0000F019FF00224FF400511D4800F013FF66
:10096C0000224FF480411A4800F00DFF00224FF492
:10097C000041174800F007FF2DE000224FF40071F2
:10098C00134800F000FF00224FF48061104800F083
:10099C00FAFE00224FF400610D4800F0F4FE002234
:1009AC004FF480510A4800F0EEFE01224FF4005142
:1009BC00074800F0E8FE00224FF48041044800F0A4
:1009CC00E2FE00224FF40041014800F0DCFE02E0A0
:1009DC000008014000BF00BF0837BD4680BD00BF06
:1009EC0080B483B000AF786039607B68184A82FBB2
:1009FC0003129210DB17D31A164A13607968144B42
:100A0C0083FB01239A10CB17D21A13469B00134475
:100A1C005B00CA1A0F4B5A603B680D4A82FB0312EB
:100A2C009210DB17D31A0B4A93603968084B83FB7F
:100A3C0001239A10CB17D21A13469B0013445B0068
:100A4C00CA1A044BDA6000BF0C37BD4680BC704735
:100A5C0067666666B400002080B500AF00220821EE
:100A6C000F4800F090FE002210210D4800F08BFE84
:100A7C00002220210A4800F086FE0022402108486E
:100A8C0000F081FE00228021054800F07CFE00224F
:100A9C004FF48071024800F076FE00BF80BD00BFAD
:100AAC000008014080B500AF00F06AFB00F02CF8A4
:100ABC0000F0B2F800F064F80E4801F0C3FA00F050
:100ACC001BF9012204210C4800F05DFE4FF47A72F0
:100ADC0000210A4800F022F90A220021084800F0FF
:100AEC001DF900220021074800F018F900F08CF9DC
:100AFC00FCE700BFC800002000080140E50C00081E
:100B0C004D0100081102000880B590B000AF07F14C
:100B1C00180328220021184601F0D6FE3B1D0022A6
:100B2C001A605A609A60DA601A610223BB61012371
:100B3C00BB621023FB6200237B6307F1180318468A
:100B4C0000F052FE0346002B01D000F0CFF80F232B
:100B5C007B600023BB600023FB6000233B61002310
:100B6C007B613B1D0021184601F0C0F80346002BA9
:100B7C0001D000F0BBF800BF4037BD4680BD00007F
:100B8C0080B586B000AF07F1080300221A605A60E6
:100B9C009A60DA603B4600221A605A601D4B4FF097
:100BAC0080421A601B4B41F63F725A60194B00226F
:100BBC009A60184B0922DA60164B00221A61154B09
:100BCC0000229A61134801F0EDF90346002B01D085
:100BDC0000F08CF84FF48053BB6007F10803194602
:100BEC000C4801F06BFB0346002B01D000F07EF8A3
:100BFC0000233B6000237B603B461946054801F00F
:100C0C0043FD0346002B01D000F070F800BF1837ED
:100C1C00BD4680BDC800002080B586B000AF07F18E
:100C2C00080300221A605A609A60DA60274B9B69AD
:100C3C00264A43F004039361244B9B6903F004039D
:100C4C007B607B68214B9B69204A43F008039361CE
:100C5C001E4B9B6903F008033B603B6800224FF678
:100C6C00FC711B4800F08FFD00227821194800F020
:100C7C008AFD4FF6FC73BB600123FB6000233B61D4
:100C8C0002237B6107F108031946114800F0E8FBC9
:100C9C000723BB600023FB6001233B6107F10803C2
:100CAC0019460C4800F0DCFB7823BB600123FB6089
:100CBC0000233B6102237B6107F1080319460548B9
:100CCC0000F0CEFB00BF1837BD4680BD00100240BF
:100CDC0000080140000C014080B500AF042102481F
:100CEC0000F069FD00BF80BD0008014080B400AF7A
:100CFC0072B600BF00BFFDE780B400AF064B002208
:100D0C001A60054B00225A60034B00221A7200BF76
:100D1C00BD4680BC704700BF1001002080B586B076
:100D2C0000AFF860B9607A601C2001F017FD034633
:100D3C007B617B69002B37D07B69FA681A607B6911
:100D4C00BA685A607B697A689A607B6900221A7368
:100D5C00174B1B7A5A1CD1B2154A11721A467B6971
:100D6C001A617B6900225A617B6900229A61104BDF
:100D7C001B68002B06D10E4A7B6913600C4A7B69F9
:100D8C0053600AE00A4B5A687B699A61084B5B68AE
:100D9C007A695A61064A7B695360054B1B7A0133A9
:100DAC00DAB2034B1A7200E000BF1837BD4680BDA3
:100DBC001001002080B483B000AF124B1B687B6025
:100DCC0016E07B685B68002B05D07B685B685A1E5D
:100DDC007B685A6009E07B681B7B0133DAB27B6865
:100DEC001A737B689A687B685A607B685B697B6066
:100DFC007B68002BE5D100BF00BF0C37BD4680BC23
:100E0C00704700BF1001002080B582B000AF164BB8
:100E1C001B687B601FE07B681B7B002B18D07B68FA
:100E2C001B7B013BDAB27B681A737B681B689847A3
:100E3C007B689B68002B0BD17B683B607B685B6994
:100E4C007B603B681B69DBB2184600F00FF802E0D0
:100E5C007B685B697B607B68002BDCD100BF00BFCB
:100E6C000837BD4680BD00BF1001002080B485B09E
:100E7C0000AF0346FB711A4B1B7A002B01D10023E8
:100E8C0029E0174B1B68FB6021E0FB681A69FB79B2
:100E9C009A421CD1FB689B69002B0AD0FB689B69AA
:100EAC00FA6852695A61FB685B69FA6892699A61DF
:100EBC0003E0FB685B690A4A1360FB685B69002B03
:100ECC0003D1FB689B69064A5360012303E0FB686E
:100EDC00002BDAD1002318461437BD4680BC70476E
:100EEC001001002080B485B000AF154B9B69144AEB
:100EFC0043F001039361124B9B6903F00103BB6048
:100F0C00BB680F4BDB690E4A43F08053D3610C4B2B
:100F1C00DB6903F080537B607B680A4B5B68FB608A
:100F2C00FB6823F0E063FB60FB6843F08063FB60CD
:100F3C00044AFB68536000BF1437BD4680BC704741
:100F4C00001002400000014080B584B000AF786012
:100F5C007B681B68B3F1804F13D10C4BDB690B4AD8
:100F6C0043F00103D361094BDB6903F00103FB6020
:100F7C00FB68002200211C2000F03BFA1C2000F032
:100F8C0054FA00BF1037BD4680BD00BF00100240B0
:100F9C0080B400AF00BFFDE780B400AF00BFFDE739
:100FAC0080B400AF00BFFDE780B400AF00BFFDE729
:100FBC0080B400AF00BFFDE780B400AF00BFBD46FA
:100FCC0080BC704780B400AF00BFBD4680BC70478A
:100FDC0080B400AF00BFBD4680BC704780B500AF89
:100FEC0000F014F900BF80BD80B500AF024801F0DD
:100FFC0075F800BF80BD00BFC800002080B586B06A
:10100C0000AF7860144A154BD31A7B617B693B6146
:10101C00134B1B68002B02D1114B124A1A60104B58
:10102C001A687B6813443A699A4207D201F064FC4F
:10103C0003460C221A604FF0FF3309E0084B1B6883
:10104C00FB60074B1A687B681344054A1360FB6806
:10105C0018461837BD4680BD00280020000400004B
:10106C001C0100208002002080B400AF00BFBD46F0
:10107C0080BC704780B483B000AF786039603B6847
:10108C00094A82FB03129210DB17D21A07497B68BC
:10109C0041F82320064A7B68002142F8231000BF48
:1010AC000C37BD4680BC7047676666662001002021
:1010BC001000002080B483B000AF00237B601CE0E4
:1010CC00134A7B6852F82330002B13DD104A7B68DF
:1010DC0052F823305A1E0E497B6841F823200C4AE3
:1010EC007B6852F82330002B04DC0A4A7B68012110
:1010FC0042F823107B6801337B60074B1B687A68CE
:10110C009A42DDDB00BF00BF0C37BD4680BC704788
:10111C0020010020100000200C00002080B582B0BF
:10112C0000AF7860FFF7C6FFFFF744FE00BF08373B
:10113C00BD4680BDFFF798FF0B480C490C4A0023B5
:10114C0002E0D458C4500433C4188C42F9D3094A71
:10115C00094C002301E013600432A242FBD301F0DE
:10116C00D1FBFFF79FFC7047000000207C000020A3
:10117C00A02900087C00002080020020FEE700006F
:10118C0080B500AF084B1B68074A43F0100313608F
:10119C00032000F023F90F2000F008F8FFF7A2FE5F
:1011AC000023184680BD00BF0020024080B582B0ED
:1011BC0000AF7860124B1A68124B1B7819464FF42B
:1011CC007A73B3FBF1F3B2FBF3F3184600F03BF97F
:1011DC000346002B01D001230EE07B680F2B0AD8AD
:1011EC00002279684FF0FF3000F003F9064A7B6863
:1011FC001360002300E0012318460837BD4680BD6C
:10120C0008000020280000202400002080B400AF3B
:10121C00054B1B781A46054B1B681344034A136095
:10122C0000BFBD4680BC7047280000203401002060
:10123C0080B400AF024B1B681846BD4680BC70479B
:10124C003401002080B485B000AF78607B6803F077
:10125C000703FB600C4BDB68BB60BA684FF6FF03FF
:10126C001340BB60FB681A02BB68134343F0BF63B7
:10127C0043F40033BB60044ABB68D36000BF14372F
:10128C00BD4680BC704700BF00ED00E080B400AFED
:10129C00044BDB681B0A03F007031846BD4680BCF1
:1012AC00704700BF00ED00E080B483B000AF034690
:1012BC00FB7197F90730002B0BDBFB7903F01F0256
:1012CC00064997F907305B09012000FA02F241F850
:1012DC00232000BF0C37BD4680BC704700E100E006
:1012EC0080B483B000AF03463960FB7197F90730C7
:1012FC00002B0ADB3B68DAB20C4997F90730120174
:10130C00D2B20B4483F800230AE03B68DAB20849F6
:10131C00FB7903F00F03043B1201D2B20B441A7693
:10132C0000BF0C37BD4680BC704700BF00E100E039
:10133C0000ED00E080B489B000AFF860B9607A606D
:10134C00FB6803F00703FB61FB69C3F10703042B84
:10135C0028BF0423BB61FB690433062B02D9FB694C
:10136C00033B00E000237B614FF0FF32BB6902FAC4
:10137C0003F3DA43BB681A407B699A404FF0FF31A4
:10138C007B6901FA03F3D9437B680B40134318467E
:10139C002437BD4680BC704780B582B000AF786002
:1013AC007B68013BB3F1807F01D301230FE00A4A34
:1013BC007B68013B53600F214FF0FF30FFF790FF2C
:1013CC00054B00229A60044B07221A600023184632
:1013DC000837BD4680BD00BF10E000E080B582B08C
:1013EC0000AF78607868FFF72DFF00BF0837BD4667
:1013FC0080BD80B586B000AF0346B9607A60FB73E0
:10140C0000237B61FFF742FF78617A68B9687869DD
:10141C00FFF790FF024697F90F3011461846FFF779
:10142C005FFF00BF1837BD4680BD80B582B000AFEE
:10143C000346FB7197F907301846FFF735FF00BFDD
:10144C000837BD4680BD80B582B000AF7860786843
:10145C00FFF7A2FF034618460837BD4680BD0000C3
:10146C0080B48BB000AF7860396000237B620023BE
:10147C003B6261E101227B6A02FA03F3FB613B6888
:10148C001B68FA691340BB61BA69FB699A4240F068
:10149C0050813B685B68974A93425ED0954A934271
:1014AC0075D8954A934258D0934A93426FD8934A31
:1014BC00934252D0914A934269D8914A93424CD06C
:1014CC008F4A934263D88F4A934246D08D4A9342B7
:1014DC005DD8122B2AD8122B59D801A252F823F01E
:1014EC0067150008411500085315000895150008EC
:1014FC009B1500089B1500089B1500089B15000800
:10150C009B1500089B1500089B1500089B150008EF
:10151C009B1500089B1500089B1500089B150008DF
:10152C009B150008491500085D150008764A934282
:10153C0013D02CE03B68DB683B6229E03B68DB683E
:10154C0004333B6224E03B68DB6808333B621FE0FA
:10155C003B68DB680C333B621AE03B689B68002BF2
:10156C0002D104233B6213E03B689B68012B05D13D
:10157C0008233B627B68FA691A6109E008233B6225
:10158C007B68FA695A6103E000233B6200E000BF0C
:10159C00BB69FF2B01D87B6801E07B6804337B615E
:1015AC00BB69FF2B02D87B6A9B0002E07B6A083B7D
:1015BC009B003B617B691A680F213B6901FA03F3BD
:1015CC00DB431A40396A3B6901FA03F31A437B691E
:1015DC001A603B685B6803F08053002B00F0A98015
:1015EC004A4B9B69494A43F001039361474B9B6902
:1015FC0003F00103BB60BB68454A7B6A9B0802335E
:10160C0052F82330FB607B6A03F003039B000F222C
:10161C0002FA03F3DB43FA681340FB607B683D4A34
:10162C0093420DD07B683C4A934207D07B683B4A7F
:10163C00934201D1022304E0032302E0012300E0E2
:10164C0000237A6A02F0030292009340FA68134373
:10165C00FB602F497B6A9B080233FA6841F8232010
:10166C003B685B6803F48013002B06D02C4B9A6804
:10167C002B49BB6913438B6006E0294B9A68BB6905
:10168C00DB43274913408B603B685B6803F4001312
:10169C00002B06D0224BDA682149BB691343CB607F
:1016AC0006E01F4BDA68BB69DB431D491340CB6076
:1016BC003B685B6803F40033002B06D0184B5A6868
:1016CC001749BB6913434B6006E0154B5A68BB695D
:1016DC00DB43134913404B603B685B6803F4803376
:1016EC00002B1FD00E4B1A680D49BB6913430B60BE
:1016FC001FE000BF0000321000003110000022106B
:10170C000000211000001210000011100010024007
:10171C000000014000080140000C01400010014095
:10172C00000401400B4B1A68BB69DB4309491340A9
:10173C000B607B6A01337B623B681A687B6A22FA16
:10174C0003F3002B7FF496AE00BF00BF2C37BD46D1
:10175C0080BC70470004014080B485B000AF786055
:10176C000B467B807B689A687B881340002B02D0E9
:10177C000123FB7301E00023FB73FB7B184614373A
:10178C00BD4680BC704780B483B000AF78600B4618
:10179C007B8013467B707B78002B03D07A887B6828
:1017AC001A6103E07B881A047B681A6100BF0C374E
:1017BC00BD4680BC704780B485B000AF78600B46E6
:1017CC007B807B68DB68FB607A88FB6813401A04BB
:1017DC00FB68D9437B880B401A437B681A6100BFB6
:1017EC001437BD4680BC704780B586B000AF7860BA
:1017FC007B68002B01D1012372E27B681B6803F02C
:10180C000103002B00F08780924B5B6803F00C0304
:10181C00042B0CD08F4B5B6803F00C03082B12D1FC
:10182C008C4B5B6803F48033B3F5803F0BD1894B51
:10183C001B6803F40033002B6CD07B685B68002BB7
:10184C0068D101234CE27B685B68B3F5803F06D11D
:10185C00804B1B687F4A43F4803313602EE07B6817
:10186C005B68002B0CD17B4B1B687A4A23F48033CA
:10187C001360784B1B68774A23F4802313601DE0B8
:10188C007B685B68B3F5A02F0CD1724B1B68714A57
:10189C0043F4802313606F4B1B686E4A43F4803310
:1018AC0013600BE06B4B1B686A4A23F480331360A4
:1018BC00684B1B68674A23F4802313607B685B6862
:1018CC00002B13D0FFF7B4FC386108E0FFF7B0FC35
:1018DC0002463B69D31A642B01D9032300E25D4B0A
:1018EC001B6803F40033002BF0D014E0FFF7A0FCCE
:1018FC00386108E0FFF79CFC02463B69D31A642B65
:10190C0001D90323ECE1534B1B6803F40033002B88
:10191C00F0D100E000BF7B681B6803F00203002BD2
:10192C0063D04C4B5B6803F00C03002B0BD0494B82
:10193C005B6803F00C03082B1CD1464B5B6803F46B
:10194C008033002B16D1434B1B6803F00203002B92
:10195C0005D07B681B69012B01D00123C0E13D4BF5
:10196C001B6823F0F8027B685B69DB003949134381
:10197C000B603AE07B681B69002B20D0364B0122B0
:10198C001A60FFF755FC386108E0FFF751FC02467E
:10199C003B69D31A022B01D90323A1E12D4B1B6800
:1019AC0003F00203002BF0D02A4B1B6823F0F80243
:1019BC007B685B69DB00274913430B6015E0264B02
:1019CC0000221A60FFF734FC386108E0FFF730FCA6
:1019DC0002463B69D31A022B01D9032380E11D4B2C
:1019EC001B6803F00203002BF0D17B681B6803F02B
:1019FC000803002B3AD07B689B69002B19D0174B3E
:101A0C0001221A60FFF714FC386108E0FFF710FCA4
:101A1C0002463B69D31A022B01D9032360E10D4B1B
:101A2C005B6A03F00203002BF0D0012000F09CFA5B
:101A3C001CE00A4B00221A60FFF7FAFB38610FE03A
:101A4C00FFF7F6FB02463B69D31A022B08D9032396
:101A5C0046E100BF001002400000424280044242B6
:101A6C00924B5B6A03F00203002BE9D17B681B6885
:101A7C0003F00403002B00F0A6800023FB758B4BB6
:101A8C00DB6903F08053002B0DD1884BDB69874A4F
:101A9C0043F08053D361854BDB6903F08053BB600B
:101AAC00BB680123FB75824B1B6803F48073002B0E
:101ABC0018D17F4B1B687E4A43F480731360FFF789
:101ACC00B7FB386108E0FFF7B3FB02463B69D31A5A
:101ADC00642B01D9032303E1754B1B6803F480735A
:101AEC00002BF0D07B68DB68012B06D16F4B1B6A97
:101AFC006E4A43F0010313622DE07B68DB68002B18
:101B0C000CD16A4B1B6A694A23F001031362674BC1
:101B1C001B6A664A23F0040313621CE07B68DB68D3
:101B2C00052B0CD1614B1B6A604A43F00403136212
:101B3C005E4B1B6A5D4A43F0010313620BE05B4B87
:101B4C001B6A5A4A23F001031362584B1B6A574A0B
:101B5C0023F0040313627B68DB68002B15D0FFF7BE
:101B6C0067FB38610AE0FFF763FB02463B69D31A57
:101B7C0041F28832934201D90323B1E04B4B1B6AEB
:101B8C0003F00203002BEED014E0FFF751FB386199
:101B9C000AE0FFF74DFB02463B69D31A41F288324B
:101BAC00934201D903239BE0404B1B6A03F00203D1
:101BBC00002BEED1FB7D012B05D13C4BDB693B4A65
:101BCC0023F08053D3617B68DB69002B00F08780A6
:101BDC00364B5B6803F00C03082B61D07B68DB6928
:101BEC00022B46D1334B00221A60FFF721FB3861E0
:101BFC0008E0FFF71DFB02463B69D31A022B01D903
:101C0C0003236DE0294B1B6803F00073002BF0D10C
:101C1C007B681B6AB3F5803F08D1244B5B6823F4C7
:101C2C0000327B689B68214913434B601F4B5B68F8
:101C3C0023F474127B68196A7B685B6A0B431B493B
:101C4C0013434B601B4B01221A60FFF7F1FA38610A
:101C5C0008E0FFF7EDFA02463B69D31A022B01D9D3
:101C6C0003233DE0114B1B6803F00073002BF0D0F5
:101C7C0035E0104B00221A60FFF7DAFA386108E001
:101C8C00FFF7D6FA02463B69D31A022B01D903237C
:101C9C0026E0064B1B6803F00073002BF0D11EE00E
:101CAC007B68DB69012B07D1012319E0001002408E
:101CBC0000700040600042420B4B5B68FB60FB68AD
:101CCC0003F480327B681B6A9A4206D1FB6803F4EA
:101CDC0070127B685B6A9A4201D0012300E00023FA
:101CEC0018461837BD4680BD0010024080B584B040
:101CFC0000AF786039607B68002B01D10123D0E004
:101D0C006A4B1B6803F007033A689A4210D9674B79
:101D1C001B6823F0070265493B6813430B60634B58
:101D2C001B6803F007033A689A4201D00123B8E01C
:101D3C007B681B6803F00203002B20D07B681B68B8
:101D4C0003F00403002B05D0594B5B68584A43F44D
:101D5C00E06353607B681B6803F00803002B05D01D
:101D6C00534B5B68524A43F460535360504B5B686F
:101D7C0023F0F0027B689B684D4913434B607B68F2
:101D8C001B6803F00103002B40D07B685B68012BC0
:101D9C0007D1474B1B6803F40033002B15D10123EB
:101DAC007FE07B685B68022B07D1414B1B6803F01B
:101DBC000073002B09D1012373E03D4B1B6803F02A
:101DCC000203002B01D101236BE0394B5B6823F03C
:101DDC0003027B685B68364913434B60FFF728FAB4
:101DEC00F8600AE0FFF724FA0246FB68D31A41F2C6
:101DFC008832934201D9032353E02D4B5B6803F0E7
:101E0C000C027B685B689B009A42EBD1274B1B68EA
:101E1C0003F007033A689A4210D2244B1B6823F054
:101E2C00070222493B6813430B60204B1B6803F0ED
:101E3C0007033A689A4201D0012332E07B681B68A1
:101E4C0003F00403002B08D0194B5B6823F4E06209
:101E5C007B68DB68164913434B607B681B6803F097
:101E6C000803002B09D0124B5B6823F460527B688B
:101E7C001B69DB000E4913434B6000F021F802464E
:101E8C000B4B5B681B0903F00F030A49CB5C22FA6E
:101E9C0003F3094A1360094B1B681846FFF786F9D0
:101EAC00002318461037BD4680BD00BF00200240FD
:101EBC0000100240742900080800002024000020B3
:101ECC0080B487B000AF0023FB600023BB6000230D
:101EDC007B6100237B6000233B611E4B5B68FB60D6
:101EEC00FB6803F00C03042B02D0082B03D027E073
:101EFC00194B3B6127E0FB689B0C03F00F03174A5F
:101F0C00D35C7B60FB6803F48033002B10D0114B47
:101F1C005B685B0C03F00103114AD35CBB607B680C
:101F2C000D4A03FB02F2BB68B2FBF3F37B6104E0E6
:101F3C007B680C4A02FB03F37B617B693B6102E02B
:101F4C00054B3B6100BF3B6918461C37BD4680BC46
:101F5C00704700BF0010024000127A00842900086C
:101F6C009429000800093D0080B485B000AF78606A
:101F7C000A4B1B680A4AA2FB03235B0A7A6802FB22
:101F8C0003F3FB6000BFFB685A1EFA60002BF9D10B
:101F9C0000BF00BF1437BD4680BC7047080000204E
:101FAC00D34D621080B582B000AF78607B68002B97
:101FBC0001D1012341E07B6893F83D30DBB2002B6B
:101FCC0006D17B68002283F83C207868FEF7BCFFC2
:101FDC007B68022283F83D207B681A687B68043397
:101FEC001946104600F056FA7B68012283F8462009
:101FFC007B68012283F83E207B68012283F83F2016
:10200C007B68012283F840207B68012283F8412001
:10201C007B68012283F842207B68012283F84320ED
:10202C007B68012283F844207B68012283F84520D9
:10203C007B68012283F83D20002318460837BD46F3
:10204C0080BD000080B485B000AF78607B6893F8E9
:10205C003D30DBB2012B01D0012335E07B6802223D
:10206C0083F83D207B681B68DA687B681B6842F04C
:10207C000102DA607B681B68164A934209D07B68C0
:10208C001B68B3F1804F04D07B681B68124A9342E3
:10209C0011D17B681B689B6803F00703FB60FB682E
:1020AC00062B10D07B681B681A687B681B6842F093
:1020BC0001021A6007E07B681B681A687B681B6862
:1020CC0042F001021A60002318461437BD4680BC4A
:1020DC00704700BF002C01400004004080B584B064
:1020EC0000AF78607B681B68DB68FB607B681B68F3
:1020FC001B69BB60BB6803F00203002B20D0FB689C
:10210C0003F00203002B1BD07B681B686FF00202EC
:10211C001A617B6801221A777B681B689B6903F044
:10212C000303002B03D0786800F098F905E0786879
:10213C0000F08BF9786800F09AF97B6800221A7726
:10214C00BB6803F00403002B20D0FB6803F00403EE
:10215C00002B1BD07B681B686FF004021A617B6834
:10216C0002221A777B681B689B6903F44073002B6F
:10217C0003D0786800F072F905E0786800F065F932
:10218C00786800F074F97B6800221A77BB6803F05A
:10219C000803002B20D0FB6803F00803002B1BD096
:1021AC007B681B686FF008021A617B6804221A773F
:1021BC007B681B68DB6903F00303002B03D0786892
:1021CC0000F04CF905E0786800F03FF9786800F011
:1021DC004EF97B6800221A77BB6803F01003002BC2
:1021EC0020D0FB6803F01003002B1BD07B681B680E
:1021FC006FF010021A617B6808221A777B681B68E3
:10220C00DB6903F44073002B03D0786800F026F9E7
:10221C0005E0786800F019F9786800F028F97B6817
:10222C0000221A77BB6803F00103002B0CD0FB686B
:10223C0003F00103002B07D07B681B686FF00102D1
:10224C001A617868FEF76AFFBB6803F08003002B05
:10225C000CD0FB6803F08003002B07D07B681B6855
:10226C006FF080021A61786800F06FFABB6803F0B7
:10227C004003002B0CD0FB6803F04003002B07D06D
:10228C007B681B686FF040021A61786800F0F8F800
:10229C00BB6803F02003002B0CD0FB6803F0200379
:1022AC00002B07D07B681B686FF020021A617868DE
:1022BC0000F042FA00BF1037BD4680BD80B584B037
:1022CC0000AF786039600023FB737B6893F83C3077
:1022DC00012B01D10223B4E07B68012283F83C205E
:1022EC007B68022283F83D207B681B689B68BB607F
:1022FC00BB6823F07703BB60BB6823F47F43BB60F0
:10230C007B681B68BA689A603B681B68B3F5005F12
:10231C003ED0B3F5005F00F28780B3F5805F00F02C
:10232C008680B3F5805F7FD8702B1AD0702B7BD84A
:10233C00602B50D0602B77D8502B3CD0502B73D8BF
:10234C00402B58D0402B6FD8302B64D0302B6BD80F
:10235C00202B60D0202B67D8002B5CD0102B5AD0B0
:10236C0062E07B6818683B6899683B685A683B6810
:10237C00DB6800F06AF97B681B689B68BB60BB6814
:10238C0043F07703BB607B681B68BA689A604FE0C8
:10239C007B6818683B6899683B685A683B68DB68DF
:1023AC0000F053F97B681B689A687B681B6842F4E1
:1023BC0080429A603CE07B6818683B6859683B68CF
:1023CC00DB681A4600F0CAF87B681B685021184677
:1023DC0000F021F92CE07B6818683B6859683B6871
:1023EC00DB681A4600F0E8F87B681B686021184629
:1023FC0000F011F91CE07B6818683B6859683B6871
:10240C00DB681A4600F0AAF87B681B684021184666
:10241C0000F001F90CE07B681A683B681B681946F0
:10242C00104600F0F8F803E00123FB7300E000BF56
:10243C007B68012283F83D207B68002283F83C20D6
:10244C00FB7B18461037BD4680BD80B483B000AF0F
:10245C00786000BF0C37BD4680BC704780B483B039
:10246C0000AF786000BF0C37BD4680BC704780B4AD
:10247C0083B000AF786000BF0C37BD4680BC70479E
:10248C0080B483B000AF786000BF0C37BD4680BC11
:10249C007047000080B485B000AF786039607B680D
:1024AC001B68FB607B682B4A934207D07B68B3F1B7
:1024BC00804F03D07B68284A934208D1FB6823F0F5
:1024CC007003FB603B685B68FA681343FB607B68D6
:1024DC00204A934207D07B68B3F1804F03D07B68CE
:1024EC001D4A934208D1FB6823F44073FB603B68A0
:1024FC00DB68FA681343FB60FB6823F080023B68DF
:10250C005B691343FB607B68FA681A603B689A68E6
:10251C007B68DA623B681A687B689A627B680D4A52
:10252C00934203D13B681A697B681A637B6801226A
:10253C005A617B681B6903F00103002B05D07B6893
:10254C001B6923F001027B681A6100BF1437BD467A
:10255C0080BC7047002C01400004004080B487B060
:10256C0000AFF860B9607A60FB681B6A7B61FB683E
:10257C001B6A23F00102FB681A62FB689B693B61D2
:10258C003B6923F0F0033B617B681B013A69134301
:10259C003B617B6923F00A037B617A69BB68134357
:1025AC007B61FB683A699A61FB687A691A6200BFC1
:1025BC001C37BD4680BC704780B487B000AFF86054
:1025CC00B9607A60FB681B6A7B61FB681B6A23F04D
:1025DC001002FB681A62FB689B693B613B6923F440
:1025EC0070433B617B681B033A6913433B617B6916
:1025FC0023F0A0037B61BB681B017A6913437B61E9
:10260C00FB683A699A61FB687A691A6200BF1C37E9
:10261C00BD4680BC704780B485B000AF786039602F
:10262C007B689B68FB60FB6823F07003FB603A6877
:10263C00FB68134343F00703FB607B68FA689A60FE
:10264C0000BF1437BD4680BC704780B487B000AF64
:10265C00F860B9607A603B60FB689B687B617B6962
:10266C0023F47F437B613B681A027B681A43BB6887
:10267C0013437A6913437B61FB687A699A6000BFE4
:10268C001C37BD4680BC704780B485B000AF786005
:10269C0039607B6893F83C30012B01D1022341E077
:1026AC007B68012283F83C207B68022283F83D2062
:1026BC007B681B685B68FB607B681B689B68BB6006
:1026CC00FB6823F07003FB603B681B68FA681343DC
:1026DC00FB607B681B68FA685A607B681B68144A4D
:1026EC00934209D07B681B68B3F1804F04D07B68A0
:1026FC001B68104A93420CD1BB6823F08003BB606B
:10270C003B685B68BA681343BB607B681B68BA683C
:10271C009A607B68012283F83D207B68002283F855
:10272C003C20002318461437BD4680BC704700BFC0
:10273C00002C01400004004080B483B000AF7860EE
:10274C0000BF0C37BD4680BC704780B483B000AF6F
:10275C00786000BF0C37BD4680BC7047024B014609
:10276C00186800F025B800BF2C00002070B50F4E83
:10277C000C463168054611B900F0AEF830602146C0
:10278C00284600F0A9F8431C03D14FF0FF34204633
:10279C0070BDC41C24F00304A042F8D0211A2846B2
:1027AC0000F09AF80130F2D1EFE700BF38010020B9
:1027BC002DE9F843CD1C25F0030508350C2D38BF49
:1027CC000C25002D064601DBA94204D90C233360ED
:1027DC000020BDE8F883DFF8D48000F069F8D8F861
:1027EC0000301C4644BB29463046FFF7BFFF431C54
:1027FC00044658D1D8F800402746002F43D1002C6E
:10280C004BD023683946304604EB030900F064F8DA
:10281C00814542D1216830466D1A2946FFF7A6FF43
:10282C0001303AD023682B442360D8F800305A6822
:10283C0062BBC8F800700FE02268521B20D40B2A30
:10284C0017D96119A342256018BF5960636808BF86
:10285C00C8F8001062514B60304600F02FF804F1BC
:10286C000B00231D20F00700C21A1CBF1B1AA3501B
:10287C00AFE76268A3420CBFC8F800205A60EBE7D0
:10288C0023466468AEE73C467F68B6E71A465B6849
:10289C00A342FBD100235360DEE70C2330463360A8
:1028AC0000F00CF894E70560D6E700BF3C0100206F
:1028BC00014800F04BB800BF7C020020014800F03A
:1028CC0046B800BF7C02002003460244934200D16C
:1028DC00704703F8011BF9E738B50023054D044692
:1028EC0008462B60FEF78AFB431C02D12B6803B110
:1028FC00236038BD78020020014B1868704700BF78
:10290C002C00002070B500260C4D0D4C641BA4103F
:10291C00A64209D100F01CF800260A4D0A4C641B93
:10292C00A410A64205D170BD55F8043B984701365A
:10293C00EEE755F8043B98470136F2E79829000872
:10294C0098290008982900089C29000870477047AE
:10295C00F8B500BFF8BC08BC9E467047F8B500BF80
:08296C00F8BC08BC9E46704750
:10297400000000000000000001020304060708092B
:1029840002030405060708090A0B0C0D0E0F1010AC
:04299400010200003C
:042998003101000801
:04299C000D01000821
:1029A000102700008813000000127A0005000000C4
:1029B0000000000000000000000000000100000016
:1029C00000000000100000000100000030000020A6
:1029D0000000000040010020A8010020100200209B
:1029E00000000000000000000000000000000000E7
:1029F00000000000000000000000000000000000D7
:102A000000000000000000000000000000000000C6
:0C2A1000000000000000000000000000BA
:04000005080011419D
:00000001FF
